{
  "contractName": "PolygonJupiter",
  "abi": [
    {
      "inputs": [],
      "stateMutability": "nonpayable",
      "type": "constructor"
    },
    {
      "anonymous": false,
      "inputs": [
        {
          "indexed": true,
          "internalType": "address",
          "name": "addr",
          "type": "address"
        },
        {
          "indexed": false,
          "internalType": "uint256",
          "name": "amount",
          "type": "uint256"
        },
        {
          "indexed": false,
          "internalType": "uint8",
          "name": "tarif",
          "type": "uint8"
        }
      ],
      "name": "NewDeposit",
      "type": "event"
    },
    {
      "anonymous": false,
      "inputs": [
        {
          "indexed": true,
          "internalType": "address",
          "name": "addr",
          "type": "address"
        },
        {
          "indexed": true,
          "internalType": "address",
          "name": "from",
          "type": "address"
        },
        {
          "indexed": false,
          "internalType": "uint256",
          "name": "amount",
          "type": "uint256"
        }
      ],
      "name": "RefPayout",
      "type": "event"
    },
    {
      "anonymous": false,
      "inputs": [
        {
          "indexed": true,
          "internalType": "address",
          "name": "addr",
          "type": "address"
        },
        {
          "indexed": true,
          "internalType": "address",
          "name": "referral",
          "type": "address"
        },
        {
          "indexed": false,
          "internalType": "uint256",
          "name": "bonus",
          "type": "uint256"
        }
      ],
      "name": "Referral",
      "type": "event"
    },
    {
      "anonymous": false,
      "inputs": [
        {
          "indexed": true,
          "internalType": "address",
          "name": "addr",
          "type": "address"
        },
        {
          "indexed": false,
          "internalType": "uint256",
          "name": "amount",
          "type": "uint256"
        }
      ],
      "name": "Withdraw",
      "type": "event"
    },
    {
      "inputs": [],
      "name": "invested",
      "outputs": [
        {
          "internalType": "uint256",
          "name": "",
          "type": "uint256"
        }
      ],
      "stateMutability": "view",
      "type": "function"
    },
    {
      "inputs": [
        {
          "internalType": "address",
          "name": "",
          "type": "address"
        }
      ],
      "name": "investors",
      "outputs": [
        {
          "internalType": "address",
          "name": "referral",
          "type": "address"
        },
        {
          "internalType": "uint256",
          "name": "dividends",
          "type": "uint256"
        },
        {
          "internalType": "uint256",
          "name": "referral_bonus",
          "type": "uint256"
        },
        {
          "internalType": "uint40",
          "name": "last_payout",
          "type": "uint40"
        },
        {
          "internalType": "uint256",
          "name": "total_invested",
          "type": "uint256"
        },
        {
          "internalType": "uint256",
          "name": "total_withdrawn",
          "type": "uint256"
        },
        {
          "internalType": "uint256",
          "name": "total_referral_bonus",
          "type": "uint256"
        }
      ],
      "stateMutability": "view",
      "type": "function"
    },
    {
      "inputs": [],
      "name": "owner",
      "outputs": [
        {
          "internalType": "address",
          "name": "",
          "type": "address"
        }
      ],
      "stateMutability": "view",
      "type": "function"
    },
    {
      "inputs": [
        {
          "internalType": "uint256",
          "name": "",
          "type": "uint256"
        }
      ],
      "name": "ref_bonuses",
      "outputs": [
        {
          "internalType": "uint8",
          "name": "",
          "type": "uint8"
        }
      ],
      "stateMutability": "view",
      "type": "function"
    },
    {
      "inputs": [],
      "name": "referral_bonus",
      "outputs": [
        {
          "internalType": "uint256",
          "name": "",
          "type": "uint256"
        }
      ],
      "stateMutability": "view",
      "type": "function"
    },
    {
      "inputs": [
        {
          "internalType": "uint8",
          "name": "",
          "type": "uint8"
        }
      ],
      "name": "tarifs",
      "outputs": [
        {
          "internalType": "uint8",
          "name": "life_days",
          "type": "uint8"
        },
        {
          "internalType": "uint16",
          "name": "percent",
          "type": "uint16"
        }
      ],
      "stateMutability": "view",
      "type": "function"
    },
    {
      "inputs": [],
      "name": "withdrawn",
      "outputs": [
        {
          "internalType": "uint256",
          "name": "",
          "type": "uint256"
        }
      ],
      "stateMutability": "view",
      "type": "function"
    },
    {
      "inputs": [],
      "name": "contractInfo",
      "outputs": [
        {
          "internalType": "uint256",
          "name": "_invested",
          "type": "uint256"
        },
        {
          "internalType": "uint256",
          "name": "_withdrawn",
          "type": "uint256"
        },
        {
          "internalType": "uint256",
          "name": "_referral_bonus",
          "type": "uint256"
        }
      ],
      "stateMutability": "view",
      "type": "function"
    },
    {
      "inputs": [
        {
          "internalType": "address",
          "name": "_addr",
          "type": "address"
        }
      ],
      "name": "investorInfo",
      "outputs": [
        {
          "internalType": "uint256",
          "name": "for_withdrawal",
          "type": "uint256"
        },
        {
          "internalType": "uint256",
          "name": "total_invested",
          "type": "uint256"
        },
        {
          "internalType": "uint256",
          "name": "total_withdrawn",
          "type": "uint256"
        },
        {
          "internalType": "uint256",
          "name": "total_referral_bonus",
          "type": "uint256"
        },
        {
          "internalType": "uint256[5]",
          "name": "structure",
          "type": "uint256[5]"
        }
      ],
      "stateMutability": "view",
      "type": "function"
    },
    {
      "inputs": [
        {
          "internalType": "uint8",
          "name": "_tarif",
          "type": "uint8"
        },
        {
          "internalType": "address",
          "name": "_referral",
          "type": "address"
        }
      ],
      "name": "deposit",
      "outputs": [],
      "stateMutability": "payable",
      "type": "function"
    },
    {
      "inputs": [],
      "name": "withdraw",
      "outputs": [],
      "stateMutability": "nonpayable",
      "type": "function"
    },
    {
      "inputs": [
        {
          "internalType": "address",
          "name": "_addr",
          "type": "address"
        }
      ],
      "name": "payoutOf",
      "outputs": [
        {
          "internalType": "uint256",
          "name": "value",
          "type": "uint256"
        }
      ],
      "stateMutability": "view",
      "type": "function"
    },
    {
      "inputs": [],
      "name": "withdrawStatus",
      "outputs": [
        {
          "internalType": "bool",
          "name": "_status",
          "type": "bool"
        },
        {
          "internalType": "uint256",
          "name": "_lastPayout",
          "type": "uint256"
        }
      ],
      "stateMutability": "view",
      "type": "function"
    },
    {
      "inputs": [
        {
          "internalType": "uint256",
          "name": "_index",
          "type": "uint256"
        }
      ],
      "name": "getDepositInfo",
      "outputs": [
        {
          "internalType": "uint8",
          "name": "_tarif",
          "type": "uint8"
        },
        {
          "internalType": "uint256",
          "name": "_amount",
          "type": "uint256"
        },
        {
          "internalType": "uint40",
          "name": "_time",
          "type": "uint40"
        }
      ],
      "stateMutability": "view",
      "type": "function"
    }
  ],
  "bytecode": "0x60806040526040518060a00160405280605a60ff168152602001602d60ff168152602001601e60ff168152602001600f60ff168152602001600760ff1681525060049060056200005192919062000164565b503480156200005f57600080fd5b50336000806101000a81548173ffffffffffffffffffffffffffffffffffffffff021916908373ffffffffffffffffffffffffffffffffffffffff1602179055506000608290506000600a90505b60228160ff16116200015c5760405180604001604052808260ff1681526020018361ffff16815250600560008360ff1660ff16815260200190815260200160002060008201518160000160006101000a81548160ff021916908360ff16021790555060208201518160000160016101000a81548161ffff021916908361ffff16021790555090505060058262000144919062000224565b9150808062000153906200027e565b915050620000ad565b5050620002dc565b826005601f01602090048101928215620001f25791602002820160005b83821115620001c157835183826101000a81548160ff021916908360ff160217905550926020019260010160208160000104928301926001030262000181565b8015620001f05782816101000a81549060ff0219169055600101602081600001049283019260010302620001c1565b505b50905062000201919062000205565b5090565b5b808211156200022057600081600090555060010162000206565b5090565b6000620002318262000263565b91506200023e8362000263565b92508261ffff03821115620002585762000257620002ad565b5b828201905092915050565b600061ffff82169050919050565b600060ff82169050919050565b60006200028b8262000271565b915060ff821415620002a257620002a1620002ad565b5b600182019050919050565b7f4e487b7100000000000000000000000000000000000000000000000000000000600052601160045260246000fd5b61231980620002ec6000396000f3fe6080604052600436106100dd5760003560e01c80639d8dd85e1161007f578063b7d9f0d211610059578063b7d9f0d2146102c1578063c80ec522146102fe578063cafb220214610329578063dbcbaca414610354576100dd565b80639d8dd85e1461023c578063a740170914610267578063ab94d950146102a5576100dd565b806361ffe858116100bb57806361ffe858146101655780636da61d1e146101915780636f7bc9be146101ce5780638da5cb5b14610211576100dd565b806315c43aaf146100e25780633ccfd60b1461010f5780635328c2bf14610126575b600080fd5b3480156100ee57600080fd5b506100f7610395565b60405161010693929190611e50565b60405180910390f35b34801561011b57600080fd5b506101246103ae565b005b34801561013257600080fd5b5061014d60048036038101906101489190611941565b610628565b60405161015c93929190611f48565b60405180910390f35b34801561017157600080fd5b5061017a6107ce565b604051610188929190611d4c565b60405180910390f35b34801561019d57600080fd5b506101b860048036038101906101b39190611918565b61086a565b6040516101c59190611e35565b60405180910390f35b3480156101da57600080fd5b506101f560048036038101906101f09190611918565b610aca565b6040516102089796959493929190611cdd565b60405180910390f35b34801561021d57600080fd5b50610226610b3d565b6040516102339190611cc2565b60405180910390f35b34801561024857600080fd5b50610251610b61565b60405161025e9190611e35565b60405180910390f35b34801561027357600080fd5b5061028e60048036038101906102899190611993565b610b67565b60405161029c929190611f1f565b60405180910390f35b6102bf60048036038101906102ba91906119bc565b610ba6565b005b3480156102cd57600080fd5b506102e860048036038101906102e39190611941565b610ec6565b6040516102f59190611f04565b60405180910390f35b34801561030a57600080fd5b50610313610ef0565b6040516103209190611e35565b60405180910390f35b34801561033557600080fd5b5061033e610ef6565b60405161034b9190611e35565b60405180910390f35b34801561036057600080fd5b5061037b60048036038101906103769190611918565b610efc565b60405161038c959493929190611e87565b60405180910390f35b6000806000600154600254600354925092509250909192565b6000600660003373ffffffffffffffffffffffffffffffffffffffff1673ffffffffffffffffffffffffffffffffffffffff16815260200190815260200160002090506103fa336110c4565b600081600101541180610411575060008160020154115b610450576040517f08c379a000000000000000000000000000000000000000000000000000000000815260040161044790611d95565b60405180910390fd5b42620697808260030160009054906101000a900464ffffffffff166104759190612013565b64ffffffffff16106104bc576040517f08c379a00000000000000000000000000000000000000000000000000000000081526004016104b390611db5565b60405180910390fd5b6000816002015482600101546104d29190611fbd565b90506000826001018190555060008260020181905550808260050160008282546104fc9190611fbd565b9250508190555080600260008282546105159190611fbd565b925050819055503373ffffffffffffffffffffffffffffffffffffffff166108fc829081150290604051600060405180830381858888f19350505050158015610562573d6000803e3d6000fd5b5060008054906101000a900473ffffffffffffffffffffffffffffffffffffffff1673ffffffffffffffffffffffffffffffffffffffff166108fc6064836105aa919061204e565b9081150290604051600060405180830381858888f193505050501580156105d5573d6000803e3d6000fd5b503373ffffffffffffffffffffffffffffffffffffffff167f884edad9ce6fa2440d8a54cc123490eb96d2768479d49ff9c7366125a94243648260405161061c9190611e35565b60405180910390a25050565b600080600080600660003373ffffffffffffffffffffffffffffffffffffffff1673ffffffffffffffffffffffffffffffffffffffff1681526020019081526020016000209050806007018054905085106106b8576040517f08c379a00000000000000000000000000000000000000000000000000000000081526004016106af90611df5565b60405180910390fd5b8060070185815481106106f4577f4e487b7100000000000000000000000000000000000000000000000000000000600052603260045260246000fd5b906000526020600020906003020160000160009054906101000a900460ff1681600701868154811061074f577f4e487b7100000000000000000000000000000000000000000000000000000000600052603260045260246000fd5b90600052602060002090600302016001015482600701878154811061079d577f4e487b7100000000000000000000000000000000000000000000000000000000600052603260045260246000fd5b906000526020600020906003020160020160009054906101000a900464ffffffffff16935093509350509193909250565b6000806000600660003373ffffffffffffffffffffffffffffffffffffffff1673ffffffffffffffffffffffffffffffffffffffff168152602001908152602001600020905042620697808260030160009054906101000a900464ffffffffff166108399190612013565b64ffffffffff16108160030160009054906101000a900464ffffffffff168064ffffffffff16905092509250509091565b600080600660008473ffffffffffffffffffffffffffffffffffffffff1673ffffffffffffffffffffffffffffffffffffffff168152602001908152602001600020905060005b8160070180549050811015610ac35760008260070182815481106108fe577f4e487b7100000000000000000000000000000000000000000000000000000000600052603260045260246000fd5b906000526020600020906003020190506000600560008360000160009054906101000a900460ff1660ff1660ff16815260200190815260200160002090506000620151808260000160009054906101000a900460ff1660ff16610961919061207f565b62ffffff168360020160009054906101000a900464ffffffffff166109869190612013565b905060008360020160009054906101000a900464ffffffffff1664ffffffffff168660030160009054906101000a900464ffffffffff1664ffffffffff16116109e4578360020160009054906101000a900464ffffffffff166109fb565b8560030160009054906101000a900464ffffffffff165b905060008264ffffffffff164211610a135742610a15565b825b90508064ffffffffff168264ffffffffff161015610aab576283d6008460000160009054906101000a900460ff1660ff168560000160019054906101000a900461ffff1661ffff168484610a699190612116565b64ffffffffff168860010154610a7f91906120bc565b610a8991906120bc565b610a93919061204e565b610a9d919061204e565b88610aa89190611fbd565b97505b50505050508080610abb906121cd565b9150506108b1565b5050919050565b60066020528060005260406000206000915090508060000160009054906101000a900473ffffffffffffffffffffffffffffffffffffffff16908060010154908060020154908060030160009054906101000a900464ffffffffff16908060040154908060050154908060060154905087565b60008054906101000a900473ffffffffffffffffffffffffffffffffffffffff1681565b60035481565b60056020528060005260406000206000915090508060000160009054906101000a900460ff16908060000160019054906101000a900461ffff16905082565b600a8260ff1610158015610bbe575060228260ff1611155b8015610bf657506000600560008460ff1660ff16815260200190815260200160002060000160009054906101000a900460ff1660ff16115b610c35576040517f08c379a0000000000000000000000000000000000000000000000000000000008152600401610c2c90611e15565b60405180910390fd5b670de0b6b3a7640000341015610c80576040517f08c379a0000000000000000000000000000000000000000000000000000000008152600401610c7790611dd5565b60405180910390fd5b6000600660003373ffffffffffffffffffffffffffffffffffffffff1673ffffffffffffffffffffffffffffffffffffffff16815260200190815260200160002090506064816007018054905010610d0d576040517f08c379a0000000000000000000000000000000000000000000000000000000008152600401610d0490611d75565b60405180910390fd5b610d1833833461121b565b8060070160405180606001604052808560ff1681526020013481526020014264ffffffffff16815250908060018154018082558091505060019003906000526020600020906003020160009091909190915060008201518160000160006101000a81548160ff021916908360ff1602179055506020820151816001015560408201518160020160006101000a81548164ffffffffff021916908364ffffffffff160217905550505034816004016000828254610dd49190611fbd565b925050819055503460016000828254610ded9190611fbd565b92505081905550610dfe33346115cd565b60008054906101000a900473ffffffffffffffffffffffffffffffffffffffff1673ffffffffffffffffffffffffffffffffffffffff166108fc600a34610e45919061204e565b9081150290604051600060405180830381858888f19350505050158015610e70573d6000803e3d6000fd5b503373ffffffffffffffffffffffffffffffffffffffff167f0d86f10953d9873a5957019d43d6ec46ac821d7ef9c936a0e65340552e78b79b3485604051610eb9929190611edb565b60405180910390a2505050565b60048160058110610ed657600080fd5b60209182820401919006915054906101000a900460ff1681565b60025481565b60015481565b600080600080610f0a6118a2565b6000600660008873ffffffffffffffffffffffffffffffffffffffff1673ffffffffffffffffffffffffffffffffffffffff168152602001908152602001600020905060003073ffffffffffffffffffffffffffffffffffffffff16636da61d1e896040518263ffffffff1660e01b8152600401610f889190611cc2565b60206040518083038186803b158015610fa057600080fd5b505afa158015610fb4573d6000803e3d6000fd5b505050506040513d601f19601f82011682018060405250810190610fd8919061196a565b905060005b60058160ff16101561108257826008018160ff1660058110611028577f4e487b7100000000000000000000000000000000000000000000000000000000600052603260045260246000fd5b0154848260ff1660058110611066577f4e487b7100000000000000000000000000000000000000000000000000000000600052603260045260246000fd5b602002018181525050808061107a90612216565b915050610fdd565b5081600201548260010154826110989190611fbd565b6110a29190611fbd565b8260040154836005015484600601549650965096509650505091939590929450565b60003073ffffffffffffffffffffffffffffffffffffffff16636da61d1e836040518263ffffffff1660e01b81526004016110ff9190611cc2565b60206040518083038186803b15801561111757600080fd5b505afa15801561112b573d6000803e3d6000fd5b505050506040513d601f19601f8201168201806040525081019061114f919061196a565b905060008111156112175742600660008473ffffffffffffffffffffffffffffffffffffffff1673ffffffffffffffffffffffffffffffffffffffff16815260200190815260200160002060030160006101000a81548164ffffffffff021916908364ffffffffff16021790555080600660008473ffffffffffffffffffffffffffffffffffffffff1673ffffffffffffffffffffffffffffffffffffffff168152602001908152602001600020600101600082825461120f9190611fbd565b925050819055505b5050565b600073ffffffffffffffffffffffffffffffffffffffff16600660008573ffffffffffffffffffffffffffffffffffffffff1673ffffffffffffffffffffffffffffffffffffffff16815260200190815260200160002060000160009054906101000a900473ffffffffffffffffffffffffffffffffffffffff1673ffffffffffffffffffffffffffffffffffffffff16148015611305575060008054906101000a900473ffffffffffffffffffffffffffffffffffffffff1673ffffffffffffffffffffffffffffffffffffffff168373ffffffffffffffffffffffffffffffffffffffff1614155b156115c8576000600660008473ffffffffffffffffffffffffffffffffffffffff1673ffffffffffffffffffffffffffffffffffffffff16815260200190815260200160002060070180549050141561137c5760008054906101000a900473ffffffffffffffffffffffffffffffffffffffff1691505b81600660008573ffffffffffffffffffffffffffffffffffffffff1673ffffffffffffffffffffffffffffffffffffffff16815260200190815260200160002060000160006101000a81548173ffffffffffffffffffffffffffffffffffffffff021916908373ffffffffffffffffffffffffffffffffffffffff1602179055508173ffffffffffffffffffffffffffffffffffffffff168373ffffffffffffffffffffffffffffffffffffffff167faeecfcda1271d292db728294b8ae465871ec039d51404caf49a7eb0ade51770a606484611459919061204e565b6040516114669190611e35565b60405180910390a360005b600560ff168160ff1610156115c657600660008473ffffffffffffffffffffffffffffffffffffffff1673ffffffffffffffffffffffffffffffffffffffff1681526020019081526020016000206008018160ff16600581106114fd577f4e487b7100000000000000000000000000000000000000000000000000000000600052603260045260246000fd5b01600081548092919061150f906121cd565b9190505550600660008473ffffffffffffffffffffffffffffffffffffffff1673ffffffffffffffffffffffffffffffffffffffff16815260200190815260200160002060000160009054906101000a900473ffffffffffffffffffffffffffffffffffffffff169250600073ffffffffffffffffffffffffffffffffffffffff168373ffffffffffffffffffffffffffffffffffffffff1614156115b3576115c6565b80806115be90612216565b915050611471565b505b505050565b6000600660008473ffffffffffffffffffffffffffffffffffffffff1673ffffffffffffffffffffffffffffffffffffffff16815260200190815260200160002060000160009054906101000a900473ffffffffffffffffffffffffffffffffffffffff16905060005b60058160ff16101561189c57600073ffffffffffffffffffffffffffffffffffffffff168273ffffffffffffffffffffffffffffffffffffffff16141561167d5761189c565b60006103e861ffff1660048360ff16600581106116c3577f4e487b7100000000000000000000000000000000000000000000000000000000600052603260045260246000fd5b602091828204019190069054906101000a900460ff1660ff16856116e791906120bc565b6116f1919061204e565b905080600660008573ffffffffffffffffffffffffffffffffffffffff1673ffffffffffffffffffffffffffffffffffffffff16815260200190815260200160002060020160008282546117459190611fbd565b9250508190555080600660008573ffffffffffffffffffffffffffffffffffffffff1673ffffffffffffffffffffffffffffffffffffffff168152602001908152602001600020600601600082825461179e9190611fbd565b9250508190555080600360008282546117b79190611fbd565b925050819055508473ffffffffffffffffffffffffffffffffffffffff168373ffffffffffffffffffffffffffffffffffffffff167fc843fb70235723c89d6a9f7d21874343107d3793f012458d6b93208311492fd68360405161181b9190611e35565b60405180910390a3600660008473ffffffffffffffffffffffffffffffffffffffff1673ffffffffffffffffffffffffffffffffffffffff16815260200190815260200160002060000160009054906101000a900473ffffffffffffffffffffffffffffffffffffffff16925050808061189490612216565b915050611637565b50505050565b6040518060a00160405280600590602082028036833780820191505090505090565b6000813590506118d38161229e565b92915050565b6000813590506118e8816122b5565b92915050565b6000815190506118fd816122b5565b92915050565b600081359050611912816122cc565b92915050565b60006020828403121561192a57600080fd5b6000611938848285016118c4565b91505092915050565b60006020828403121561195357600080fd5b6000611961848285016118d9565b91505092915050565b60006020828403121561197c57600080fd5b600061198a848285016118ee565b91505092915050565b6000602082840312156119a557600080fd5b60006119b384828501611903565b91505092915050565b600080604083850312156119cf57600080fd5b60006119dd85828601611903565b92505060206119ee858286016118c4565b9150509250929050565b6000611a048383611c86565b60208301905092915050565b611a198161214a565b82525050565b611a2881611f89565b611a328184611fa1565b9250611a3d82611f7f565b8060005b83811015611a6e578151611a5587826119f8565b9650611a6083611f94565b925050600181019050611a41565b505050505050565b611a7f8161215c565b82525050565b6000611a92601c83611fac565b91507f4d617820313030206465706f73697473207065722061646472657373000000006000830152602082019050919050565b6000611ad2602f83611fac565b91507f596f75206e65656420746f206d616b652061206465706f73697420696e206f7260008301527f64657220746f20776974686472617700000000000000000000000000000000006020830152604082019050919050565b6000611b38603c83611fac565b91507f596f752063616e207769746864726177206f6e6c79206166746572203520646160008301527f79732066726f6d20796f7572206c617374207769746864726177616c000000006020830152604082019050919050565b6000611b9e602283611fac565b91507f4d696e696d756d206465706f73697420616d6f756e74206973203130204d415460008301527f49430000000000000000000000000000000000000000000000000000000000006020830152604082019050919050565b6000611c04601283611fac565b91507f496e646578206f7574206f662072616e676500000000000000000000000000006000830152602082019050919050565b6000611c44600f83611fac565b91507f5461726966206e6f7420666f756e6400000000000000000000000000000000006000830152602082019050919050565b611c8081612168565b82525050565b611c8f816121a5565b82525050565b611c9e816121a5565b82525050565b611cad816121af565b82525050565b611cbc816121c0565b82525050565b6000602082019050611cd76000830184611a10565b92915050565b600060e082019050611cf2600083018a611a10565b611cff6020830189611c95565b611d0c6040830188611c95565b611d196060830187611ca4565b611d266080830186611c95565b611d3360a0830185611c95565b611d4060c0830184611c95565b98975050505050505050565b6000604082019050611d616000830185611a76565b611d6e6020830184611c95565b9392505050565b60006020820190508181036000830152611d8e81611a85565b9050919050565b60006020820190508181036000830152611dae81611ac5565b9050919050565b60006020820190508181036000830152611dce81611b2b565b9050919050565b60006020820190508181036000830152611dee81611b91565b9050919050565b60006020820190508181036000830152611e0e81611bf7565b9050919050565b60006020820190508181036000830152611e2e81611c37565b9050919050565b6000602082019050611e4a6000830184611c95565b92915050565b6000606082019050611e656000830186611c95565b611e726020830185611c95565b611e7f6040830184611c95565b949350505050565b600061012082019050611e9d6000830188611c95565b611eaa6020830187611c95565b611eb76040830186611c95565b611ec46060830185611c95565b611ed16080830184611a1f565b9695505050505050565b6000604082019050611ef06000830185611c95565b611efd6020830184611cb3565b9392505050565b6000602082019050611f196000830184611cb3565b92915050565b6000604082019050611f346000830185611cb3565b611f416020830184611c77565b9392505050565b6000606082019050611f5d6000830186611cb3565b611f6a6020830185611c95565b611f776040830184611ca4565b949350505050565b6000819050919050565b600060059050919050565b6000602082019050919050565b600081905092915050565b600082825260208201905092915050565b6000611fc8826121a5565b9150611fd3836121a5565b9250827fffffffffffffffffffffffffffffffffffffffffffffffffffffffffffffffff0382111561200857612007612240565b5b828201905092915050565b600061201e826121af565b9150612029836121af565b92508264ffffffffff0382111561204357612042612240565b5b828201905092915050565b6000612059826121a5565b9150612064836121a5565b9250826120745761207361226f565b5b828204905092915050565b600061208a82612196565b915061209583612196565b92508162ffffff04831182151516156120b1576120b0612240565b5b828202905092915050565b60006120c7826121a5565b91506120d2836121a5565b9250817fffffffffffffffffffffffffffffffffffffffffffffffffffffffffffffffff048311821515161561210b5761210a612240565b5b828202905092915050565b6000612121826121af565b915061212c836121af565b92508282101561213f5761213e612240565b5b828203905092915050565b600061215582612176565b9050919050565b60008115159050919050565b600061ffff82169050919050565b600073ffffffffffffffffffffffffffffffffffffffff82169050919050565b600062ffffff82169050919050565b6000819050919050565b600064ffffffffff82169050919050565b600060ff82169050919050565b60006121d8826121a5565b91507fffffffffffffffffffffffffffffffffffffffffffffffffffffffffffffffff82141561220b5761220a612240565b5b600182019050919050565b6000612221826121c0565b915060ff82141561223557612234612240565b5b600182019050919050565b7f4e487b7100000000000000000000000000000000000000000000000000000000600052601160045260246000fd5b7f4e487b7100000000000000000000000000000000000000000000000000000000600052601260045260246000fd5b6122a78161214a565b81146122b257600080fd5b50565b6122be816121a5565b81146122c957600080fd5b50565b6122d5816121c0565b81146122e057600080fd5b5056fea2646970667358221220cc5f0a7b0f5589d00fc65cea6fd35d417fc1434c6fdc26135871de8891bb246964736f6c63430008000033",
  "immutableReferences": {},
  "source": "//SPDX-License-Identifier: MIT\n\npragma solidity ^0.8.0;\n\nstruct Tarif {\n    uint8 life_days;\n    uint16 percent;\n}\n\nstruct Deposit {\n    uint8 tarif;\n    uint256 amount;\n    uint40 time;\n}\n\nstruct Investor {\n    address referral;\n    uint256 dividends;\n    uint256 referral_bonus;\n    uint40 last_payout;\n    uint256 total_invested;\n    uint256 total_withdrawn;\n    uint256 total_referral_bonus;\n    Deposit[] deposits;\n    uint256[5] structure;\n}\n\ncontract PolygonJupiter {\n    address public owner;\n\n    uint256 public invested;\n    uint256 public withdrawn;\n    uint256 public referral_bonus;\n\n    uint8 constant BONUS_LEVELS_COUNT = 5;\n    uint16 constant PERCENT_DIVIDER = 1000;\n    uint8[BONUS_LEVELS_COUNT] public ref_bonuses = [90, 45, 30, 15, 7];\n\n    mapping(uint8 => Tarif) public tarifs;\n    mapping(address => Investor) public investors;\n\n    event Referral(\n        address indexed addr,\n        address indexed referral,\n        uint256 bonus\n    );\n    event NewDeposit(address indexed addr, uint256 amount, uint8 tarif);\n    event RefPayout(address indexed addr, address indexed from, uint256 amount);\n    event Withdraw(address indexed addr, uint256 amount);\n\n    constructor() {\n        owner = msg.sender;\n        uint16 tarifPercent = 130;\n        for (uint8 tarifDays = 10; tarifDays <= 34; tarifDays++) {\n            tarifs[tarifDays] = Tarif(tarifDays, tarifPercent);\n            tarifPercent += 5;\n        }\n    }\n\n    function contractInfo()\n        external\n        view\n        returns (\n            uint256 _invested,\n            uint256 _withdrawn,\n            uint256 _referral_bonus\n        )\n    {\n        return (invested, withdrawn, referral_bonus);\n    }\n\n    function investorInfo(address _addr)\n        external\n        view\n        returns (\n            uint256 for_withdrawal,\n            uint256 total_invested,\n            uint256 total_withdrawn,\n            uint256 total_referral_bonus,\n            uint256[BONUS_LEVELS_COUNT] memory structure\n        )\n    {\n        Investor storage investor = investors[_addr];\n\n        uint256 payout = this.payoutOf(_addr);\n\n        for (uint8 i = 0; i < ref_bonuses.length; i++) {\n            structure[i] = investor.structure[i];\n        }\n\n        return (\n            payout + investor.dividends + investor.referral_bonus,\n            investor.total_invested,\n            investor.total_withdrawn,\n            investor.total_referral_bonus,\n            structure\n        );\n    }\n\n    function _payout(address _addr) private {\n        uint256 payout = this.payoutOf(_addr);\n\n        if (payout > 0) {\n            investors[_addr].last_payout = uint40(block.timestamp);\n            investors[_addr].dividends += payout;\n        }\n    }\n\n    function _refPayout(address _addr, uint256 _amount) private {\n        address up = investors[_addr].referral;\n\n        for (uint8 i = 0; i < ref_bonuses.length; i++) {\n            if (up == address(0)) break;\n\n            uint256 bonus = (_amount * ref_bonuses[i]) / PERCENT_DIVIDER;\n\n            investors[up].referral_bonus += bonus;\n            investors[up].total_referral_bonus += bonus;\n\n            referral_bonus += bonus;\n\n            emit RefPayout(up, _addr, bonus);\n\n            up = investors[up].referral;\n        }\n    }\n\n    function _setReferral(\n        address _addr,\n        address _referral,\n        uint256 _amount\n    ) private {\n        if (investors[_addr].referral == address(0) && _addr != owner) {\n            if (investors[_referral].deposits.length == 0) {\n                _referral = owner;\n            }\n\n            investors[_addr].referral = _referral;\n\n            emit Referral(_addr, _referral, _amount / 100);\n\n            for (uint8 i = 0; i < BONUS_LEVELS_COUNT; i++) {\n                investors[_referral].structure[i]++;\n\n                _referral = investors[_referral].referral;\n\n                if (_referral == address(0)) break;\n            }\n        }\n    }\n\n    function deposit(uint8 _tarif, address _referral) external payable {\n        require(\n            _tarif >= 10 && _tarif <= 34 && tarifs[_tarif].life_days > 0,\n            \"Tarif not found\"\n        );\n        require(msg.value >= 1 ether, \"Minimum deposit amount is 10 MATIC\");\n\n        Investor storage investor = investors[msg.sender];\n\n        require(investor.deposits.length < 100, \"Max 100 deposits per address\");\n\n        _setReferral(msg.sender, _referral, msg.value);\n\n        investor.deposits.push(\n            Deposit({\n                tarif: _tarif,\n                amount: msg.value,\n                time: uint40(block.timestamp)\n            })\n        );\n\n        investor.total_invested += msg.value;\n        invested += msg.value;\n\n        _refPayout(msg.sender, msg.value);\n\n        payable(owner).transfer(msg.value / 10);\n\n        emit NewDeposit(msg.sender, msg.value, _tarif);\n    }\n\n    function withdraw() external {\n        Investor storage investor = investors[msg.sender];\n\n        _payout(msg.sender);\n\n        require(\n            investor.dividends > 0 || investor.referral_bonus > 0,\n            \"You need to make a deposit in order to withdraw\"\n        );\n\n        require(\n            investor.last_payout + (86400 * 5) < block.timestamp,\n            \"You can withdraw only after 5 days from your last withdrawal\"\n        );\n\n        uint256 amount = investor.dividends + investor.referral_bonus;\n\n        investor.dividends = 0;\n        investor.referral_bonus = 0;\n        investor.total_withdrawn += amount;\n        withdrawn += amount;\n\n        payable(msg.sender).transfer(amount);\n        payable(owner).transfer(amount / 100);\n\n        emit Withdraw(msg.sender, amount);\n    }\n\n    function payoutOf(address _addr) external view returns (uint256 value) {\n        Investor storage investor = investors[_addr];\n\n        for (uint256 i = 0; i < investor.deposits.length; i++) {\n            Deposit storage dep = investor.deposits[i];\n            Tarif storage tarif = tarifs[dep.tarif];\n\n            uint40 time_end = dep.time + tarif.life_days * 86400;\n            uint40 from = investor.last_payout > dep.time\n                ? investor.last_payout\n                : dep.time;\n            uint40 to = block.timestamp > time_end\n                ? time_end\n                : uint40(block.timestamp);\n            if (from < to) {\n                value +=\n                    (dep.amount * (to - from) * tarif.percent) /\n                    tarif.life_days /\n                    8640000;\n            }\n        }\n        return value;\n    }\n\n    function withdrawStatus()\n        external\n        view\n        returns (bool _status, uint256 _lastPayout)\n    {\n        Investor storage investor = investors[msg.sender];\n        return (\n            investor.last_payout + (86400 * 5) < block.timestamp,\n            investor.last_payout\n        );\n    }\n\n    function getDepositInfo(uint256 _index)\n        external\n        view\n        returns (\n            uint8 _tarif,\n            uint256 _amount,\n            uint40 _time\n        )\n    {\n        Investor storage investor = investors[msg.sender];\n\n        require(_index < investor.deposits.length, \"Index out of range\");\n\n        return (\n            investor.deposits[_index].tarif,\n            investor.deposits[_index].amount,\n            investor.deposits[_index].time\n        );\n    }\n}\n",
  "sourcePath": "/Users/rahulgupta/Workspace/polygon-SC/contracts/PolygonJupiter.sol",
  "compiler": {
    "name": "solc",
    "version": "0.8.0+commit.c7dfd78e.Emscripten.clang"
  },
  "schemaVersion": "3.4.3",
  "updatedAt": "2021-12-16T09:24:47.789Z",
  "devdoc": {
    "kind": "dev",
    "methods": {},
    "version": 1
  },
  "userdoc": {
    "kind": "user",
    "methods": {},
    "version": 1
  }
}