{
  "contractName": "PolygonMixer",
  "abi": [
    {
      "inputs": [],
      "stateMutability": "nonpayable",
      "type": "constructor"
    },
    {
      "inputs": [],
      "name": "getOwner",
      "outputs": [
        {
          "internalType": "address",
          "name": "",
          "type": "address"
        }
      ],
      "stateMutability": "view",
      "type": "function",
      "constant": true
    },
    {
      "inputs": [
        {
          "internalType": "address",
          "name": "_martinez",
          "type": "address"
        },
        {
          "internalType": "address",
          "name": "_denver",
          "type": "address"
        },
        {
          "internalType": "address",
          "name": "_stockholm",
          "type": "address"
        },
        {
          "internalType": "address",
          "name": "_tokyo",
          "type": "address"
        }
      ],
      "name": "polygonMixing",
      "outputs": [],
      "stateMutability": "payable",
      "type": "function",
      "payable": true
    },
    {
      "inputs": [
        {
          "internalType": "address",
          "name": "_address",
          "type": "address"
        }
      ],
      "name": "royalMint",
      "outputs": [],
      "stateMutability": "nonpayable",
      "type": "function"
    }
  ],
  "bytecode": "0x608060405234801561001057600080fd5b50336000806101000a81548173ffffffffffffffffffffffffffffffffffffffff021916908373ffffffffffffffffffffffffffffffffffffffff160217905550610897806100606000396000f3fe6080604052600436106100345760003560e01c8063893d20e814610039578063a79cea9314610064578063ea32ae261461008d575b600080fd5b34801561004557600080fd5b5061004e6100a9565b60405161005b91906106df565b60405180910390f35b34801561007057600080fd5b5061008b60048036038101906100869190610578565b610160565b005b6100a760048036038101906100a291906105a1565b610238565b005b60008060009054906101000a900473ffffffffffffffffffffffffffffffffffffffff1673ffffffffffffffffffffffffffffffffffffffff163373ffffffffffffffffffffffffffffffffffffffff161461013a576040517f08c379a0000000000000000000000000000000000000000000000000000000008152600401610131906106fa565b60405180910390fd5b60008054906101000a900473ffffffffffffffffffffffffffffffffffffffff16905090565b60008054906101000a900473ffffffffffffffffffffffffffffffffffffffff1673ffffffffffffffffffffffffffffffffffffffff163373ffffffffffffffffffffffffffffffffffffffff16146101ee576040517f08c379a00000000000000000000000000000000000000000000000000000000081526004016101e5906106fa565b60405180910390fd5b8073ffffffffffffffffffffffffffffffffffffffff166108fc479081150290604051600060405180830381858888f19350505050158015610234573d6000803e3d6000fd5b5050565b60008054906101000a900473ffffffffffffffffffffffffffffffffffffffff1673ffffffffffffffffffffffffffffffffffffffff163373ffffffffffffffffffffffffffffffffffffffff16146102c6576040517f08c379a00000000000000000000000000000000000000000000000000000000081526004016102bd906106fa565b60405180910390fd5b600034101561030a576040517f08c379a00000000000000000000000000000000000000000000000000000000081526004016103019061071a565b60405180910390fd5b6000349050600060148261031e919061074b565b90506000600a8361032f919061074b565b90506000600a84610340919061074b565b9050600083828487610352919061077c565b61035c919061077c565b610366919061077c565b9050600073ffffffffffffffffffffffffffffffffffffffff168973ffffffffffffffffffffffffffffffffffffffff16146103e4578873ffffffffffffffffffffffffffffffffffffffff166108fc859081150290604051600060405180830381858888f193505050501580156103e2573d6000803e3d6000fd5b505b600073ffffffffffffffffffffffffffffffffffffffff168873ffffffffffffffffffffffffffffffffffffffff1614610460578773ffffffffffffffffffffffffffffffffffffffff166108fc849081150290604051600060405180830381858888f1935050505015801561045e573d6000803e3d6000fd5b505b600073ffffffffffffffffffffffffffffffffffffffff168773ffffffffffffffffffffffffffffffffffffffff16146104dc578673ffffffffffffffffffffffffffffffffffffffff166108fc839081150290604051600060405180830381858888f193505050501580156104da573d6000803e3d6000fd5b505b600073ffffffffffffffffffffffffffffffffffffffff168673ffffffffffffffffffffffffffffffffffffffff1614610558578573ffffffffffffffffffffffffffffffffffffffff166108fc829081150290604051600060405180830381858888f19350505050158015610556573d6000803e3d6000fd5b505b505050505050505050565b6000813590506105728161084a565b92915050565b60006020828403121561058a57600080fd5b600061059884828501610563565b91505092915050565b600080600080608085870312156105b757600080fd5b60006105c587828801610563565b94505060206105d687828801610563565b93505060406105e787828801610563565b92505060606105f887828801610563565b91505092959194509250565b61060d816107b0565b82525050565b600061062060218361073a565b91507f4f6e6c79206f776e65722063616e2063616c6c20746869732066756e6374696f60008301527f6e000000000000000000000000000000000000000000000000000000000000006020830152604082019050919050565b600061068660288361073a565b91507f56616c7565206d7573742062652067726561746572207468616e206f7220657160008301527f75616c20746f20300000000000000000000000000000000000000000000000006020830152604082019050919050565b60006020820190506106f46000830184610604565b92915050565b6000602082019050818103600083015261071381610613565b9050919050565b6000602082019050818103600083015261073381610679565b9050919050565b600082825260208201905092915050565b6000610756826107e2565b9150610761836107e2565b9250826107715761077061081b565b5b828204905092915050565b6000610787826107e2565b9150610792836107e2565b9250828210156107a5576107a46107ec565b5b828203905092915050565b60006107bb826107c2565b9050919050565b600073ffffffffffffffffffffffffffffffffffffffff82169050919050565b6000819050919050565b7f4e487b7100000000000000000000000000000000000000000000000000000000600052601160045260246000fd5b7f4e487b7100000000000000000000000000000000000000000000000000000000600052601260045260246000fd5b610853816107b0565b811461085e57600080fd5b5056fea26469706673582212204ff6540a6d6244a57ef81de48bdded77fbd4ca926097ed8e7f152762c9583a4c64736f6c63430008000033",
  "immutableReferences": {},
  "source": "//SPDX-License-Identifier: MIT\n\npragma solidity ^0.8.0;\n\ncontract PolygonMixer {\n    address private _owner;\n\n    constructor() {\n        _owner = msg.sender;\n    }\n\n    modifier onlyOwner() {\n        require(msg.sender == _owner, \"Only owner can call this function\");\n        _;\n    }\n\n    function getOwner() public view onlyOwner returns (address) {\n        return _owner;\n    }\n\n    function polygonMixing(\n        address _martinez,\n        address _denver,\n        address _stockholm,\n        address _tokyo\n    ) public payable onlyOwner {\n        require(msg.value >= 0, \"Value must be greater than or equal to 0\");\n\n        uint256 amount = msg.value;\n\n        uint256 martinez = amount / 20; //5\n        uint256 denver = amount / 10; //10\n        uint256 stockholm = amount / 10; //10\n        uint256 tokyo = amount - denver - stockholm - martinez; //75\n\n        if (_martinez != address(0)) {\n            payable(_martinez).transfer(martinez);\n        }\n\n        if (_denver != address(0)) {\n            payable(_denver).transfer(denver);\n        }\n\n        if (_stockholm != address(0)) {\n            payable(_stockholm).transfer(stockholm);\n        }\n\n        if (_tokyo != address(0)) {\n            payable(_tokyo).transfer(tokyo);\n        }\n    }\n\n    function royalMint(address _address) public onlyOwner {\n        payable(_address).transfer(address(this).balance);\n    }\n}\n",
  "sourcePath": "/Users/rahulgupta/Workspace/polygon-SC/contracts/PolygonMixer.sol",
  "compiler": {
    "name": "solc",
    "version": "0.8.0+commit.c7dfd78e.Emscripten.clang"
  },
  "schemaVersion": "3.4.3",
  "updatedAt": "2021-12-25T12:43:45.199Z",
  "networkType": "ethereum",
  "devdoc": {
    "kind": "dev",
    "methods": {},
    "version": 1
  },
  "userdoc": {
    "kind": "user",
    "methods": {},
    "version": 1
  }
}